:100000000C942A000C9447000C9447000C94470071
:100010000C943C220C946F220C94A2220C94092282
:100020000C94D6210C94D5220C9470210C94A3210D
:100030000C9447000C948B260C9447000C942E26AD
:100040000C942B070C9447000C9447000C94470029
:100050000C94470011241FBECFE5D8E0DEBFCDBF12
:1000600012E0A0E6B0E0EAE7FEE502C005900D92DE
:10007000AA30B107D9F712E0AAE0B2E001C01D92A0
:10008000A137B107E1F70E94FD260C943B2F0C9499
:100090000000EF92FF920F931F937B018C0120E0F1
:1000A00030E040E05FE40E94490388238CF0C801FF
:1000B000B70120E030E040E05FE40E94C1010E940F
:1000C000A9039B01AC01205030404040504806C07D
:1000D000C801B7010E94A9039B01AC01B901CA0183
:1000E0001F910F91FF90EF900895A0E0B0E0EBE733
:1000F000F0E00C94042FDC012B01FA019C9192306A
:1001000008F439C1EB018881823008F433C194309E
:1001100069F4843009F02FC111969C91119789815F
:10012000981709F428C1A2E6B1E025C1843009F48A
:1001300021C18230A9F4923009F01DC19A01AD01AC
:1001400088E0EA010990AE01E90109929E0181501F
:10015000C1F7E201898111969C918923818308C1AD
:10016000923009F407C112962D903C901397EB0141
:100170008A819B811496AD90BD90CD90DC901797AD
:10018000EC80FD800E811F819101281B390BB90184
:1001900037FF04C066277727621B730B6032710537
:1001A0000CF061C0121613066CF537014801062EDB
:1001B00004C096948794779467940A94D2F721E0C8
:1001C00030E040E050E004C0220F331F441F551FB1
:1001D0006A95D2F721503040404050402E213F21B7
:1001E00040235123211531054105510521F021E01E
:1001F00030E040E050E079018A01E628F72808293C
:1002000019293CC0232BD1F1260E371E350146019A
:10021000062E04C096948794779467940A94D2F734
:1002200021E030E040E050E004C0220F331F441FC3
:10023000551F6A95D2F721503040404050402A2146
:100240003B214C215D21211531054105510521F04E
:1002500021E030E040E050E059016A01A628B728CB
:10026000C828D9280BC0821593052CF01C01AA249C
:10027000BB24650103C0EE24FF24870111969C91E5
:10028000D20111968C91981709F445C0992339F041
:10029000A80197012A193B094C095D0906C0A6016E
:1002A00095012E193F09400B510B57FD08C01182D3
:1002B0003382228224833583468357831DC081E0A5
:1002C00081833382228288279927DC01821B930B4A
:1002D000A40BB50B84839583A683B7830DC0220F2F
:1002E000331F441F551F24833583468357838281E0
:1002F000938101979383828324813581468157813D
:10030000DA01C9010197A109B1098F5F9F4FAF4F72
:10031000BF4328F30BC0918333822282EA0CFB1C7B
:100320000C1D1D1DE482F5820683178383E0808304
:10033000248135814681578157FF1AC0C901AA27F8
:1003400097FDA095BA2F81709070A070B0705695EF
:10035000479537952795822B932BA42BB52B848318
:100360009583A683B7838281938101969383828349
:10037000DF0101C0D201CD01CDB7DEB7E2E10C94BF
:10038000202FA0E2B0E0E7ECF1E00C94102F69839D
:100390007A838B839C832D833E834F835887E9E048
:1003A000EE2EF12CEC0EFD1ECE010196B7010E943F
:1003B000D2048E010F5E1F4FCE010596B8010E9438
:1003C000D2048A8991E089278A8BC701B801AE01DE
:1003D000475E5F4F0E9475000E94FD03A096E6E015
:1003E0000C942C2FA0E2B0E0E8EFF1E00C94102F79
:1003F00069837A838B839C832D833E834F835887C5
:10040000F9E0EF2EF12CEC0EFD1ECE010196B701A6
:100410000E94D2048E010F5E1F4FCE010596B801D7
:100420000E94D204C701B801AE01475E5F4F0E942F
:1004300075000E94FD03A096E6E00C942C2FA0E22C
:10044000B0E0E5E2F2E00C94042F69837A838B83B9
:100450009C832D833E834F835887CE010196BE0136
:10046000675F7F4F0E94D204CE010596BE016F5E8A
:100470007F4F0E94D2049985923088F0898982301A
:10048000C8F0943019F4823051F404C0843029F457
:10049000923081F482E691E0C6C0923049F420E0C7
:1004A0009A858A89981321E02A87CE010996BBC0D4
:1004B000823049F420E09A858A89981321E02A8BBA
:1004C000CE014196B0C02D843E844F8458886D88FB
:1004D0007E888F88988CEE24FF248701AA24BB2471
:1004E000650140E050E060E070E0E0E0F0E0C10174
:1004F00081709070892BE9F0E60CF71C081D191D1E
:100500009A01AB012A0D3B1D4C1D5D1D80E090E062
:10051000A0E0B0E0E614F7040805190520F481E036
:1005200090E0A0E0B0E0BA01A901480F591F6A1F8E
:100530007B1FAA0CBB1CCC1CDD1C97FE08C081E0F5
:1005400090E0A0E0B0E0A82AB92ACA2ADB2A3196B6
:10055000E032F10549F0660C771C881C991C569412
:10056000479437942794C3CFFA85EA892B893C892D
:100570008B859C85280F391F2E5F3F4F17C0CA01FE
:1005800081709070892B61F016950795F794E79428
:1005900080E090E0A0E0B0E8E82AF92A0A2B1B2BC3
:1005A00076956795579547952F5F3F4F77FDE7CF36
:1005B0000CC0440F551F661F771F17FD4160EE0CDE
:1005C000FF1C001F111F21503040403090E05907A0
:1005D00090E0690790E4790760F32B8F3C8FDB0193
:1005E000CA018F779070A070B07080349105A1051A
:1005F000B10561F447FD0AC0E114F10401051105DC
:1006000029F0405C5F4F6F4F7F4F40781A8EFE1786
:1006100011F081E08A8F4D8F5E8F6F8F78A383E01A
:10062000898FCE0149960E94FD03A096E2E10C94C9
:10063000202FA8E1B0E0EFE1F3E00C94102F6983E4
:100640007A838B839C832D833E834F83588789E0F5
:10065000E82EF12CEC0EFD1ECE010196B7010E9492
:10066000D2048E010F5E1F4FCE010596B8010E9485
:10067000D2048985823040F08989823028F0C70110
:10068000B8010E944A0501C08FEF6896E6E00C941D
:100690002C2FA8E1B0E0EFE4F3E00C94102F698375
:1006A0007A838B839C832D833E834F83588789E095
:1006B000E82EF12CEC0EFD1ECE010196B7010E9432
:1006C000D2048E010F5E1F4FCE010596B8010E9425
:1006D000D2048985823040F08989823028F0C701B0
:1006E000B8010E944A0501C08FEF6896E6E00C94BD
:1006F0002C2FA8E1B0E0EFE7F3E00C94102F698312
:100700007A838B839C832D833E834F83588789E034
:10071000E82EF12CEC0EFD1ECE010196B7010E94D1
:10072000D2048E010F5E1F4FCE010596B8010E94C4
:10073000D2048985823040F08989823028F0C7014F
:10074000B8010E944A0501C081E06896E6E00C9479
:100750002C2FACE0B0E0EFEAF3E00C94142F6983A7
:100760007A838B839C83CE010196BE016B5F7F4FA2
:100770000E94D2048D81823061F1823050F1843048
:1007800021F48E81882351F12EC02F81388537FDC9
:1007900020C06E812F3131051CF06623F9F023C093
:1007A0008EE190E0821B930B29853A854B855C8511
:1007B00004C056954795379527958A95D2F76623B5
:1007C000B1F050954095309521953F4F4F4F5F4F79
:1007D0000EC020E030E040E050E009C02FEF3FEFD6
:1007E0004FEF5FE704C020E030E040E050E8B9019F
:1007F000CA012C96E2E00C94302FDF92EF92FF9228
:100800000F931F93FC01E480F58006811781D1804E
:100810008081823048F480E090E0A0E1B0E0E82AF6
:10082000F92A0A2B1B2BA5C0843009F49FC0823003
:1008300021F4EE24FF24870105C0E114F104010531
:10084000110519F4E0E0F0E096C0628173819FEF3A
:10085000623879070CF05BC022E83FEF261B370BAC
:100860002A3131052CF020E030E040E050E02AC091
:10087000B801A701022E04C0769567955795479554
:100880000A94D2F781E090E0A0E0B0E004C0880FC5
:10089000991FAA1FBB1F2A95D2F70197A109B10979
:1008A0008E219F21A023B1230097A105B10521F03E
:1008B00081E090E0A0E0B0E09A01AB01282B392B59
:1008C0004A2B5B2BDA01C9018F779070A070B07052
:1008D00080349105A105B10539F427FF09C0205CDA
:1008E0003F4F4F4F5F4F04C0215C3F4F4F4F5F4F13
:1008F000E0E0F0E02030A0E03A07A0E04A07A0E402
:100900005A0710F0E1E0F0E079018A0127C0603871
:10091000710564F5FB01E158FF4FD801C7018F77DE
:100920009070A070B07080349105A105B10539F4C4
:10093000E7FE0DC080E490E0A0E0B0E004C08FE3EB
:1009400090E0A0E0B0E0E80EF91E0A1F1B1F17FFA1
:1009500005C016950795F794E794319687E01695AC
:100960000795F794E7948A95D1F705C0EE24FF2404
:100970008701EFEFF0E06E2F679566276795902F60
:100980009F77D794DD24D7948E2F8695492F462BB9
:10099000582F5D29B701CA011F910F91FF90EF9069
:1009A000DF900895FC01DB01408151812281622F9B
:1009B0006F7770E0221F2227221F9381892F880FD3
:1009C000822B282F30E0991F9927991F11969C930D
:1009D000119721153105A9F54115510561057105DD
:1009E00011F482E037C082E89FEF13969C938E93B8
:1009F00012979A01AB0167E0220F331F441F551F66
:100A00006A95D1F783E08C930DC0220F331F441FEA
:100A1000551F12968D919C911397019713969C9355
:100A20008E931297203080E0380780E0480780E4FA
:100A3000580758F314962D933D934D935C93179755
:100A400008952F3F310579F4411551056105710570
:100A500019F484E08C93089564FF03C081E08C93C3
:100A600012C01C9210C02F57304013963C932E9307
:100A7000129783E08C9387E0440F551F661F771F02
:100A80008A95D1F7706414964D935D936D937C9322
:100A9000179708951F93DC01FB019C91923008F495
:100AA00047C08081823008F443C0943051F41196DD
:100AB0001C91843099F58181682F70E0611B710968
:100AC0003FC0843021F0923031F48230B9F181811D
:100AD000882389F12DC011961C9111978230F1F075
:100AE00081811817D9F412962D913C911397828128
:100AF00093818217930794F028173907BCF0149656
:100B00008D919D910D90BC91A02D248135814681C0
:100B10005781281739074A075B0718F4112341F05A
:100B20000AC082179307A407B50740F4112319F0F0
:100B300061E070E005C06FEF7FEF02C060E070E041
:100B4000CB011F910895DF93CF93CDB7DEB7A7E216
:100B5000B0E0E7E2F0E0808180648C93A7E2B0E04F
:100B6000E7E2F0E080818F778C93A7E2B0E0E7E2E4
:100B7000F0E080818F7D8C93A6E2B0E0E6E2F0E0C9
:100B80008081877F8C93A6E2B0E0E6E2F0E080818E
:100B9000887F8C93A6E2B0E0E6E2F0E08081876097
:100BA0008C93A6E2B0E0E6E2F0E0808180688C936E
:100BB000CF91DF910895DF93CF93CDB7DEB728971C
:100BC0000FB6F894DEBF0FBECDBF8E8378876F83DC
:100BD0001D828F819885009709F469C080916A0110
:100BE000813009F061C019821A821B821C82109226
:100BF0006A01A7E2B0E0E7E2F0E08081807E8C93BA
:100C0000A7E2B0E0E7E2F0E090818E81892B8C933F
:100C1000A6E2B0E0E6E2F0E0808180648C930BC055
:100C200089819A81AB81BC810196A11DB11D898307
:100C30009A83AB83BC83E6E2F0E0808182958F707B
:100C4000882F90E081709070009761F489819A817B
:100C5000AB81BC81803523EC920720E0A20720E025
:100C6000B207F0F289819A81AB81BC81803523EC97
:100C7000920720E0A20720E0B20718F083E08D83FE
:100C800018C0A6E2B0E0E6E2F0E0808180618C93DB
:100C9000E4E2F0E080819181EF81F88591838083A7
:100CA00081E080936A0105C084E08D8302C082E008
:100CB0008D838D8128960FB6F894DEBF0FBECDBF11
:100CC000CF91DF910895DF93CF9300D000D000D073
:100CD000CDB7DEB78A837C836B835E834D831982B5
:100CE0008B819C810097C9F18D819E810097A9F12C
:100CF00080916A01813071F510926A01109212029E
:100D00008B819C8190930B0280930A028D819E813E
:100D100090930D0280930C02A7E2B0E0E7E2F0E0CE
:100D20008081807E8C93A7E2B0E0E7E2F0E09081E2
:100D30008A81892B8C93A6E2B0E0E6E2F0E0808124
:100D400080648C93A6E2B0E0E6E2F0E08081886007
:100D50008C9305C084E0898302C082E08983898105
:100D600026960FB6F894DEBF0FBECDBFCF91DF91B0
:100D70000895DF93CF9300D00F92CDB7DEB79B835A
:100D80008A8319828A819B81009709F45BC08091D4
:100D90006A01813009F053C010926A0181E08093AA
:100DA0001202EA81FB818581968190930D028093E6
:100DB0000C02EA81FB818381948190930B028093E2
:100DC0000A02EA81FB818181928190930F028093D4
:100DD0000E02EA81FB81808180931102EA81FB810E
:100DE000878190859093140280931302A7E2B0E06C
:100DF000E7E2F0E08081807E8C93A7E2B0E0E7E25A
:100E0000F0E0408120910E0230910F02809110029B
:100E1000882F90E0F901E80FF91F8081842B8C93D3
:100E2000A6E2B0E0E6E2F0E0808180648C93A6E286
:100E3000B0E0E6E2F0E0808188608C9305C084E059
:100E4000898302C082E0898389810F900F900F907F
:100E5000CF91DF9108951F920F920FB60F92112438
:100E60002F933F934F935F936F937F938F939F93B2
:100E7000AF93BF93EF93FF93DF93CF93CDB7DEB7DD
:100E800080910A0290910B02009709F465C080914D
:100E90001202882309F5A0910A02B0910B02E4E244
:100EA000F0E0808191818D939C93A6E2B0E0E6E230
:100EB000F0E08081877F8C9381E080936A0180914C
:100EC0000C0290910D02009709F446C0E0910C02CB
:100ED000F0910D02099540C0809112028130E1F538
:100EE00020910A0230910B0280911002882F90E02D
:100EF000880F991FD901A80FB91FE4E2F0E08081A3
:100F000091818D939C93809110028F5F809310024A
:100F1000A6E2B0E0E6E2F0E08081877F8C9381E09A
:100F200080936A019091100280911102981739F014
:100F300080911302909114020E94B9060DC0809115
:100F40000C0290910D02009739F010921002E0917E
:100F50000C02F0910D020995CF91DF91FF91EF9175
:100F6000BF91AF919F918F917F916F915F914F91C1
:100F70003F912F910F900FBE0F901F901895DF9308
:100F8000CF93CDB7DEB72E970FB6F894DEBF0FBE66
:100F9000CDBF80E062E041E00E94EE0C80E090E096
:100FA000A0E0B0E48B879C87AD87BE876B857C858E
:100FB0008D859E8520E030E04AE753E40E941F02C1
:100FC000DC01CB018F839887A987BA876F817885E9
:100FD00089859A8520E030E040E85FE30E9479034C
:100FE00088232CF481E090E09E838D833FC06F8145
:100FF000788589859A8520E03FEF4FE757E40E9486
:10100000190318164CF56B857C858D859E8520E02F
:1010100030E040E251E40E941F02DC01CB01BC0140
:10102000CD010E944900DC01CB019E838D830FC05E
:1010300089E190E09C838B838B819C810197F1F700
:101040009C838B838D819E8101979E838D838D816F
:101050009E81009769F714C06F81788589859A858C
:101060000E944900DC01CB019E838D838D819E818E
:101070009A83898389819A810197F1F79A83898379
:1010800080E062E040E00E94EE0C2E960FB6F894ED
:10109000DEBF0FBECDBFCF91DF910895DF93CF9319
:1010A0000F92CDB7DEB789838981982F917080E048
:1010B00063E0492F0E94EE0C89818695982F9170EC
:1010C00080E064E0492F0E94EE0C89818695869528
:1010D000982F917080E065E0492F0E94EE0C898185
:1010E000869586958695982F917080E066E0492FC9
:1010F0000E94EE0C0F90CF91DF910895DF93CF9374
:101100000F92CDB7DEB7898380E061E040E00E94B6
:10111000EE0C898182958F700E944E080E94BF0755
:1011200089810E944E080E94BF070F90CF91DF91E6
:101130000895DF93CF930F92CDB7DEB7898380E018
:1011400061E041E00E94EE0C898182958F700E94DF
:101150004E080E94BF0789810E944E080E94BF0767
:101160000F90CF91DF910895DF93CF93CDB7DEB786
:101170002E970FB6F894DEBF0FBECDBF80E090E093
:10118000A0E2B2E48B879C87AD87BE876B857C85A8
:101190008D859E8520E030E04AE753E40E941F02DF
:1011A000DC01CB018F839887A987BA876F81788507
:1011B00089859A8520E030E040E85FE30E9479036A
:1011C00088232CF481E090E09E838D833FC06F8163
:1011D000788589859A8520E03FEF4FE757E40E94A4
:1011E000190318164CF56B857C858D859E8520E04E
:1011F00030E040E251E40E941F02DC01CB01BC015F
:10120000CD010E944900DC01CB019E838D830FC07C
:1012100089E190E09C838B838B819C810197F1F71E
:101220009C838B838D819E8101979E838D838D818D
:101230009E81009769F714C06F81788589859A85AA
:101240000E944900DC01CB019E838D838D819E81AC
:101250009A83898389819A810197F1F79A83898397
:1012600082E00E944E080E94BF0782E00E944E0862
:101270000E94BF0788E00E944E080E94BF078CE0D2
:101280000E947E0881E00E947E082E960FB6F89498
:10129000DEBF0FBECDBFCF91DF910895DF93CF9317
:1012A00000D000D0CDB7DEB79C838B831A828B81B0
:1012B0009C810097E1F019820EC08981282F30E0CF
:1012C0008B819C81FC01E20FF31F80810E949908B1
:1012D00089818F5F89838981282F30E08B819C8170
:1012E000FC01E20FF31F8081882339F702C082E0FE
:1012F0008A838A810F900F900F900F90CF91DF918A
:101300000895DF93CF93CDB7DEB761970FB6F8940A
:10131000DEBF0FBECDBF6E877F87888B998B1A8209
:101320008E859F85A889B9890097A105B10521F40B
:1013300080E30E94990869C08E859F85A889B98934
:10134000BB230CF043C08DE20E9499088E859F85D7
:10135000A889B989B095A095909581959F4FAF4F79
:10136000BF4F8E879F87A88BB98B30C08E859F8596
:10137000A889B9892AE030E040E050E0BC01CD0105
:101380000E94E92EDC01CB018B838E859F85A88985
:10139000B9892AE030E040E050E0BC01CD010E9474
:1013A000E92EDA01C9018E879F87A88BB98B8A81C4
:1013B000282F30E08B81482F405DCE010496FC0140
:1013C000E20FF31F40838A818F5F8A838E859F851A
:1013D000A889B9890097A105B10541F68A81815094
:1013E000898310C08981282F332727FD3095CE01AE
:1013F0000496FC01E20FF31F80810E949908898105
:1014000081508983898188236CF761960FB6F8949F
:10141000DEBF0FBECDBFCF91DF910895DF93CF9395
:1014200000D00F92CDB7DEB78A836B838B81882380
:1014300019F48A81898306C08B81813019F48A81ED
:10144000805C898389818068898389810E947E0884
:101450000F900F900F90CF91DF910895DF93CF936E
:10146000CDB7DEB727970FB6F894DEBF0FBECDBF5E
:101470009C838B836D834E832F838D81882F90E097
:10148000880F991F880F991F880F991F8A838A8157
:1014900080648A838A810E947E0819820EC08981B5
:1014A000282F30E08B819C81FC01E20FF31F8081AB
:1014B0000E94990889818F5F89838981883078F3B8
:1014C0008E816F810E940E0A8D810E949908279655
:1014D0000FB6F894DEBF0FBECDBFCF91DF91089558
:1014E000DF93CF93CDB7DEB72B970FB6F894DEBF5F
:1014F0000FBECDBF8B871A8288E0898320C0898187
:10150000815089838A81482F50E08B85282F33278B
:1015100027FD30958981882F90E0B90102C075952B
:1015200067958A95E2F7CB01282F2170CE010396AB
:10153000FC01E40FF51F20838A818F5F8A838981F4
:101540008823E9F680E690E00E944E091A8214C0D2
:101550008A81282F30E0CE010396FC01E20FF31FB1
:101560008081882F90E0A0E0B0E0BC01CD010E9416
:1015700081098A818F5F8A838A81883048F32B961C
:101580000FB6F894DEBF0FBECDBFCF91DF910895A7
:10159000DF93CF93CDB7DEB762970FB6F894DEBF77
:1015A0000FBECDBF8E871D8288E08C831B821A827E
:1015B000198220C08C8181508C838D81482F50E00E
:1015C0008E85282F332727FD30958C81882F90E03A
:1015D000B90102C0759567958A95E2F7CB01282F6E
:1015E0002170CE010696FC01E40FF51F20838D814A
:1015F0008F5F8D838C818823E9F683E08C8383E67B
:1016000090E00E944E091D821FC08D81282F30E07E
:10161000CE010696FC01E20FF31F8081282F30E0F7
:101620008C81882F90E0A90102C0440F551F8A9534
:10163000E2F7CA01982F8981892B89838C81815097
:101640008C838D818F5F8D838D818430F0F28981D1
:10165000682F70E07A8B698B89899A898C30910523
:1016600031F129893A892D3031055CF449895A894B
:101670004A305105B1F069897A896B307105A1F062
:1016800022C089899A898E309105B9F029893A89D1
:101690002E3031057CF049895A894F30510581F04F
:1016A00012C081E48B8312C082E48B830FC083E479
:1016B0008B830CC084E48B8309C085E48B8306C0D4
:1016C00086E48B8303C08981805D8B8383E08C8378
:1016D000198284E08D831FC08D81282F30E0CE01D8
:1016E0000696FC01E20FF31F8081282F30E08C81E9
:1016F000882F90E0B90102C0660F771F8A95E2F744
:10170000CB01982F8981892B89838C8181508C838F
:101710008D818F5F8D838D818830F0F28981282FB4
:1017200030E0388B2F874F8558894C30510531F187
:101730006F8578896D3071055CF48F8598898A3062
:101740009105B1F02F8538892B303105A1F022C0E9
:101750004F8558894E305105B9F06F8578896E30C4
:1017600071057CF08F8598898F30910581F012C0CA
:1017700081E48A8312C082E48A830FC083E48A836F
:101780000CC084E48A8309C085E48A8306C086E4A9
:101790008A8303C08981805D8A838B810E94990836
:1017A0008A810E94990862960FB6F894DEBF0FBE38
:1017B000CDBFCF91DF910895DF93CF93CDB7DEB743
:1017C00028970FB6F894DEBF0FBECDBF8A836B8318
:1017D0004C8319828B81883008F0F4C08C81882377
:1017E00009F077C08A81282F30E038872F838F81D6
:1017F00098858130910559F12F8138852230310546
:101800002CF48F819885009769F060C02F8138850E
:101810002230310589F18F8198858330910509F453
:1018200040C054C0AAE3B0E0EAE3F0E08081482F72
:101830008B81282F30E081E090E0022E02C0880FDB
:10184000991F0A94E2F7809584238C93BDC0A7E387
:10185000B0E0E7E3F0E08081482F8B81282F30E073
:1018600081E090E0022E02C0880F991F0A94E2F7EF
:10187000809584238C93A8C0A4E3B0E0E4E3F0E077
:101880008081482F8B81282F30E081E090E0022E6C
:1018900002C0880F991F0A94E2F7809584238C93E5
:1018A00093C0A1E3B0E0E1E3F0E08081482F8B81B9
:1018B000282F30E081E090E0022E02C0880F991FAF
:1018C0000A94E2F7809584238C937EC081E089831B
:1018D0007BC08C81813009F072C08A81282F30E072
:1018E0003E832D838D819E818130910549F12D812B
:1018F0003E81223031052CF48D819E81009761F06C
:101900005BC02D813E812230310571F18D819E8138
:1019100083309105E9F150C0AAE3B0E0EAE3F0E0DA
:101920008081482F8B81282F30E081E090E0022ECB
:1019300002C0880F991F0A94E2F7842B8C9344C04D
:10194000A7E3B0E0E7E3F0E08081482F8B81282F08
:1019500030E081E090E0022E02C0880F991F0A94C7
:10196000E2F7842B8C9330C0A4E3B0E0E4E3F0E032
:101970008081482F8B81282F30E081E090E0022E7B
:1019800002C0880F991F0A94E2F7842B8C931CC025
:10199000A1E3B0E0E1E3F0E08081482F8B81282FC4
:1019A00030E081E090E0022E02C0880F991F0A9477
:1019B000E2F7842B8C9308C081E0898305C081E025
:1019C000898302C081E08983898128960FB6F894C3
:1019D000DEBF0FBECDBFCF91DF910895DF93CF93D0
:1019E000CDB7DEB728970FB6F894DEBF0FBECDBFD8
:1019F0008A836B834C8319828B81883008F0F4C012
:101A00008C81882309F077C08A81282F30E03887BD
:101A10002F838F8198858130910559F12F813885E9
:101A2000223031052CF48F819885009769F060C0D1
:101A30002F8138852230310589F18F819885833057
:101A4000910509F440C054C0ABE3B0E0EBE3F0E033
:101A50008081482F8B81282F30E081E090E0022E9A
:101A600002C0880F991F0A94E2F7809584238C9313
:101A7000BDC0A8E3B0E0E8E3F0E08081482F8B81AF
:101A8000282F30E081E090E0022E02C0880F991FDD
:101A90000A94E2F7809584238C93A8C0A5E3B0E074
:101AA000E5E3F0E08081482F8B81282F30E081E052
:101AB00090E0022E02C0880F991F0A94E2F78095E9
:101AC00084238C9393C0A2E3B0E0E2E3F0E0808152
:101AD000482F8B81282F30E081E090E0022E02C059
:101AE000880F991F0A94E2F7809584238C937EC017
:101AF00081E089837BC08C81813009F072C08A814A
:101B0000282F30E03E832D838D819E818130910589
:101B100049F12D813E81223031052CF48D819E8149
:101B2000009761F05BC02D813E812230310571F15B
:101B30008D819E8183309105E9F150C0ABE3B0E027
:101B4000EBE3F0E08081482F8B81282F30E081E0AB
:101B500090E0022E02C0880F991F0A94E2F7842BAE
:101B60008C9344C0A8E3B0E0E8E3F0E08081482F24
:101B70008B81282F30E081E090E0022E02C0880F98
:101B8000991F0A94E2F7842B8C9330C0A5E3B0E050
:101B9000E5E3F0E08081482F8B81282F30E081E061
:101BA00090E0022E02C0880F991F0A94E2F7842B5E
:101BB0008C931CC0A2E3B0E0E2E3F0E08081482F08
:101BC0008B81282F30E081E090E0022E02C0880F48
:101BD000991F0A94E2F7842B8C9308C081E08983D3
:101BE00005C081E0898302C081E0898389812896CC
:101BF0000FB6F894DEBF0FBECDBFCF91DF91089531
:101C0000DF93CF93CDB7DEB727970FB6F894DEBF3B
:101C10000FBECDBF8A836B835D834C8319828C8119
:101C20009D81009719F482E089837AC08B81883086
:101C300008F074C08A81282F30E03F832E834E81C4
:101C40005F814130510559F18E819F81823091052C
:101C500034F42E813F812115310569F05CC04E813D
:101C60005F814230510579F18E819F8183309105EA
:101C700009F43DC050C0E9E3F0E08081282F30E056
:101C80008B81882F90E0A90102C0559547958A95D0
:101C9000E2F7CA018170EC81FD81808341C0E6E3F7
:101CA000F0E08081282F30E08B81882F90E0A9011F
:101CB00002C0559547958A95E2F7CA018170EC817B
:101CC000FD8180832DC0E3E3F0E08081282F30E0A8
:101CD0008B81882F90E0A90102C0559547958A9580
:101CE000E2F7CA018170EC81FD81808319C0E0E3D5
:101CF000F0E08081282F30E08B81882F90E0A901CF
:101D000002C0559547958A95E2F7CA018170EC812A
:101D1000FD81808305C081E0898302C081E08983E1
:101D2000898127960FB6F894DEBF0FBECDBFCF9145
:101D3000DF910895DF93CF9300D000D00F92CDB7FD
:101D4000DEB78A836B8319828A818430B0F58A81F9
:101D5000282F30E03D832C838C819D81813091053B
:101D6000D1F02C813D81223031052CF48C819D8174
:101D7000009761F01FC02C813D812230310581F038
:101D80008C819D818330910581F014C0EAE3F0E0FD
:101D90008B81808314C0E7E3F0E08B8180830FC0E8
:101DA000E4E3F0E08B8180830AC0E1E3F0E08B8123
:101DB000808305C081E0898302C081E089838981B5
:101DC0000F900F900F900F900F90CF91DF9108958B
:101DD000DF93CF9300D000D00F92CDB7DEB78A83C8
:101DE0006B8319828A818430B0F58A81282F30E094
:101DF0003D832C838C819D8181309105D1F02C8194
:101E00003D81223031052CF48C819D81009761F059
:101E10001FC02C813D812230310581F08C819D8154
:101E20008330910581F014C0EBE3F0E08B81808377
:101E300014C0E8E3F0E08B8180830FC0E5E3F0E0BD
:101E40008B8180830AC0E2E3F0E08B81808305C050
:101E500081E0898302C081E0898389810F900F909E
:101E60000F900F900F90CF91DF910895DF93CF9354
:101E700000D000D00F92CDB7DEB78A836B83198272
:101E80008B81883008F072C08A81282F30E03D8332
:101E90002C838C819D818130910549F12C813D817C
:101EA000223031052CF48C819D81009761F05BC05C
:101EB0002C813D812230310571F18C819D818330EF
:101EC0009105E9F150C0ABE3B0E0EBE3F0E08081D5
:101ED000482F8B81282F30E081E090E0022E02C055
:101EE000880F991F0A94E2F784278C9341C0A8E3D6
:101EF000B0E0E8E3F0E08081482F8B81282F30E0CC
:101F000081E090E0022E02C0880F991F0A94E2F748
:101F100084278C932DC0A5E3B0E0E5E3F0E0808159
:101F2000482F8B81282F30E081E090E0022E02C004
:101F3000880F991F0A94E2F784278C9319C0A2E3B3
:101F4000B0E0E2E3F0E08081482F8B81282F30E081
:101F500081E090E0022E02C0880F991F0A94E2F7F8
:101F600084278C9305C081E0898302C081E0898346
:101F700089810F900F900F900F900F90CF91DF916C
:101F80000895DF93CF93CDB7DEB763970FB6F8947C
:101F9000DEBF0FBECDBF9A8B898B6B8B188A898968
:101FA0009A8924E08030920708F086C089899A894E
:101FB000892F992780658F870E9453238F850E94E0
:101FC000A72389890E9417248B890E9417240E94C5
:101FD000762480E090E0A0E2B1E48B879C87AD8717
:101FE000BE876B857C858D859E8520E030E04AE745
:101FF00053E40E941F02DC01CB018F839887A987DD
:10200000BA876F81788589859A8520E030E040E83D
:102010005FE30E94790388232CF481E090E09E83A3
:102020008D833FC06F81788589859A8520E03FEF59
:102030004FE757E40E94190318164CF56B857C8511
:102040008D859E8520E030E040E251E40E941F0231
:10205000DC01CB01BC01CD010E944900DC01CB01B8
:102060009E838D830FC089E190E09C838B838B815D
:102070009C810197F1F79C838B838D819E810197D1
:102080009E838D838D819E81009769F717C06F8134
:10209000788589859A850E944900DC01CB019E8361
:1020A0008D838D819E819A83898389819A8101970D
:1020B000F1F79A83898302C081E0888B88896396CF
:1020C0000FB6F894DEBF0FBECDBFCF91DF9108955C
:1020D000DF93CF9300D000D000D0CDB7DEB79C8384
:1020E0008B837E836D831A828D819E81009719F187
:1020F0008B819C8124E080309207D0F48B819C817D
:10210000892F9927806589830E94532389810E94A2
:10211000A7238B810E9417240E947D2389810E941E
:10212000DF238D819E810E9440240E94762405C079
:1021300081E08A8302C082E08A838A8126960FB674
:10214000F894DEBF0FBECDBFCF91DF910895DF932E
:10215000CF93CDB7DEB77894CF91DF910895DF9319
:10216000CF93CDB7DEB7F894CF91DF910895DF9389
:10217000CF93CDB7DEB7EAE3F0E08EE78083E7E305
:10218000F0E08FEF8083E4E3F0E083E28083E1E33B
:10219000F0E08CEB8083EBE3F0E01082E8E3F0E02A
:1021A0001082E5E3F0E01082E2E3F0E08CE180836E
:1021B000CF91DF9108950F931F93DF93CF93CDB706
:1021C000DEB72E970FB6F894DEBF0FBECDBF68877F
:1021D00079878A879B874C871F8282E08D838DE079
:1021E0008B83CE0103960E94111980913E0290913B
:1021F0003F029E878D87ED85FE85E330F10509F46A
:1022000045C08D859E85843091055CF4ED85FE8505
:10221000E130F10599F08D859E858230910511F1AF
:1022200070C0ED85FE85E430F10509F443C08D856D
:102230009E858530910509F451C063C006E410E025
:1022400080E094E2A4EFB0E0288539854A855B857B
:10225000BC01CD010E94C72EDA01C901F8019183AA
:1022600080834FC006E410E080E894E8AEE1B0E07F
:10227000288539854A855B85BC01CD010E94C72E22
:10228000DA01C901F801918380833BC006E410E0C4
:1022900080E990EDA3E0B0E0288539854A855B852B
:1022A000BC01CD010E94C72EDA01C901F80191835A
:1022B000808327C006E410E084E294EFA0E0B0E061
:1022C000288539854A855B85BC01CD010E94C72ED2
:1022D000DA01C901F8019183808313C006E410E09C
:1022E00089E09DE3A0E0B0E0288539854A855B85DB
:1022F000BC01CD010E94C72EDA01C901F80191830A
:102300008083E6E4F0E0808191819A8389830AE406
:1023100010E089819A81CC01A0E0B0E02C85222FC9
:1023200030E040E050E0BC01CD010E94A82EDC016D
:10233000CB0124E630E040E050E0BC01CD010E943A
:10234000C72EDA01C9010197F801918380832E9687
:102350000FB6F894DEBF0FBECDBFCF91DF911F91B6
:102360000F910895EF92FF920F931F93DF93CF93F6
:10237000CDB7DEB72C970FB6F894DEBF0FBECDBF3A
:102380009A8789877C876B871B8285E090E09A8398
:10239000898389859A85009709F4BFC08B859C85C0
:1023A000009709F4BAC01C8281E00E949D12CE0100
:1023B00004960E94111928EC32E184E0B9010E94D0
:1023C0006A2024ED32E187E0B9010E946A2084E0AE
:1023D0000E946A1F87E00E946A1F0E94A7108091D6
:1023E00022028530E0F30E94AF1087E00E94EA1FCE
:1023F00084E00E94EA1F20911D0230911E0240914C
:102400001F02509120028091190290911A02A0910E
:102410001B02B0911C0279018A01E81AF90A0A0B21
:102420001B0B89819A819C0140E050E0C801B701F3
:102430000E94A82EDC01CB012AE030E040E050E011
:10244000BC01CD010E94C72EDA01C901E985FA85D8
:1024500080839183A283B3832091190230911A0261
:1024600040911B0250911C0280911502909116021E
:10247000A0911702B091180279018A01E81AF90AAD
:102480000A0B1B0B89819A819C0140E050E0C80136
:10249000B7010E94A82EDC01CB012AE030E040E029
:1024A00050E0BC01CD010E94C72EDA01C901EB85C5
:1024B000FC8580839183A283B383E985FA8520819B
:1024C000318142815381EB85FC8580819181A2819C
:1024D000B38182179307A407B507D0F4E985FA857D
:1024E0002081318142815381EB85FC8580819181FE
:1024F000A281B38179018A01E81AF90A0A0B1B0B40
:10250000D801C701E985FA8580839183A283B383CB
:10251000109222021092210202C082E08B838B81F2
:102520002C960FB6F894DEBF0FBECDBFCF91DF91D2
:102530001F910F91FF90EF900895DF93CF9300D0FC
:102540000F92CDB7DEB789838981282F30E03B8396
:102550002A838A819B81009731F02A813B81213037
:10256000310549F00FC0AEE4B0E0EEE4F0E0808168
:102570008F7B8C9307C0AEE4B0E0EEE4F0E08081A6
:1025800080648C930F900F900F90CF91DF910895FE
:10259000DF93CF93CDB7DEB7809121028F5F809319
:1025A0002102CF91DF910895DF93CF93CDB7DEB7AE
:1025B000809129028F5F80932902809129028130C6
:1025C000E9F4E6E4F0E0808191819C0140E050E094
:1025D00080912102882F90E0A0E0B0E0DC019927F3
:1025E0008827820F931FA41FB51F80931502909315
:1025F0001602A0931702B09318024EC080912902D0
:10260000823001F5E6E4F0E0808191819C0140E0B8
:1026100050E080912102882F90E0A0E0B0E0DC0142
:1026200099278827820F931FA41FB51F8093190233
:1026300090931A02A0931B02B0931C0280E00E94A8
:102640009D122AC080912902833031F5E6E4F0E042
:10265000808191819C0140E050E080912102882F8F
:1026600090E0A0E0B0E0DC0199278827820F931F5B
:10267000A41FB51F80931D0290931E02A0931F02FA
:10268000B093200281E00E949D1210922902809155
:1026900022028F5F80932202CF91DF910895DF9312
:1026A000CF93CDB7DEB761970FB6F894DEBF0FBEFC
:1026B000CDBF6B877C878D879E874F87398B288B13
:1026C000198288899989009771F1888999899093ED
:1026D0002402809323028B859C859093280280930B
:1026E000270284E08A8385E00E946A1F8AEF90E0D7
:1026F00060E00E94A120CE0102960E94111981E0A3
:102700008F8318868AEF0E946D1581E00E946A1FF0
:102710002FE933E181E0B9010E946A20CE010796DA
:102720000E94E31302C082E08983898161960FB61B
:10273000F894DEBF0FBECDBFCF91DF910895DF9338
:10274000CF93CDB7DEB780912A0290912B02A09152
:102750002C02B0912D020196A11DB11D80932A0279
:1027600090932B02A0932C02B0932D02809127020C
:10277000909128029C0140E050E080912A029091C3
:102780002B02A0912C02B0912D02281739074A077D
:102790005B07B1F481E00E94EA1F10922A021092B6
:1027A0002B0210922C0210922D0280912302909104
:1027B0002402009729F0E0912302F0912402099568
:1027C000CF91DF910895DF93CF93CDB7DEB72B97ED
:1027D0000FB6F894DEBF0FBECDBF9B838A831982EC
:1027E0008A819B81009709F45EC1EA81FB81808127
:1027F000282F30E03B872A878A859B858130910589
:1028000021F12A853B85223031052CF48A859B8570
:10281000009761F046C02A853B852230310521F1C1
:102820008A859B858330910571F13BC0A3E5B0E0BB
:10283000E3E5F0E080818F7B8C93A3E5B0E0E3E5F6
:10284000F0E080818F7D8C932CC0A3E5B0E0E3E5C0
:10285000F0E080818F7B8C93A3E5B0E0E3E5F0E0CE
:10286000808180628C931DC0A3E5B0E0E3E5F0E0D9
:10287000808180648C93A3E5B0E0E3E5F0E08081A3
:1028800080628C930EC0A3E5B0E0E3E5F0E08081C8
:1028900080648C93A3E5B0E0E3E5F0E080818F7D78
:1028A0008C93EA81FB818081813009F05DC0EA81EF
:1028B000FB818181282F30E0398728878885998599
:1028C0008130910521F128853985223031052CF49C
:1028D00088859985009761F0D7C028853985223091
:1028E000310521F1888599858330910571F1CCC03E
:1028F000A3E5B0E0E3E5F0E080818F7E8C93A3E573
:10290000B0E0E3E5F0E080818F7D8C93BDC0A3E56E
:10291000B0E0E3E5F0E0808180618C93A3E5B0E076
:10292000E3E5F0E080818F7D8C93AEC0A3E5B0E05D
:10293000E3E5F0E080818F7E8C93A3E5B0E0E3E5F2
:10294000F0E0808180628C939FC0A3E5B0E0E3E576
:10295000F0E0808180618C93A3E5B0E0E3E5F0E0F6
:10296000808180628C9390C0EA81FB81808182307B
:1029700009F043C0EA81FB818281282F30E03F8348
:102980002E838E819F818130910541F12E813F817F
:1029900022303105A1F08E819F81009709F074C02B
:1029A000A3E5B0E0E3E5F0E080818F7E8C93A3E5C2
:1029B000B0E0E3E5F0E080818F7D8C9365C0A3E516
:1029C000B0E0E3E5F0E080818F7E8C93A3E5B0E09A
:1029D000E3E5F0E0808180628C9356C0A3E5B0E02F
:1029E000E3E5F0E0808180618C93A3E5B0E0E3E56E
:1029F000F0E0808180628C9347C0EA81FB81808116
:102A0000833009F041C0EA81FB818381282F30E0C7
:102A10003D832C838C819D8181309105C1F02C8177
:102A20003D812230310511F18C819D81009761F546
:102A3000A3E5B0E0E3E5F0E080818F7E8C93A3E531
:102A4000B0E0E3E5F0E080818F7D8C931DC0A3E5CD
:102A5000B0E0E3E5F0E080818F7E8C93A3E5B0E009
:102A6000E3E5F0E0808180628C930EC0A3E5B0E0E6
:102A7000E3E5F0E0808180618C93A3E5B0E0E3E5DD
:102A8000F0E0808180628C93A3E5B0E0E3E5F0E0C4
:102A90008081887F8C93A3E5B0E0E3E5F0E080815E
:102AA00083608C9302C082E0898389812B960FB664
:102AB000F894DEBF0FBECDBFCF91DF910895DF93B5
:102AC000CF930F92CDB7DEB78983E2E5F0E089813D
:102AD00080830F90CF91DF910895DF93CF930F9272
:102AE000CDB7DEB78983ECE5F0E0898180830F9074
:102AF000CF91DF910895DF93CF9300D00F92CDB7A0
:102B0000DEB789838981282F30E03B832A838A813D
:102B10009B818130910521F12A813B812230310551
:102B20002CF48A819B81009761F046C02A813B8109
:102B30002230310521F18A819B818330910571F129
:102B40003BC0A3E5B0E0E3E5F0E080818F7E8C93AD
:102B5000A3E5B0E0E3E5F0E080818F7D8C932CC0AD
:102B6000A3E5B0E0E3E5F0E0808180618C93A3E52C
:102B7000B0E0E3E5F0E080818F7D8C931DC0A3E59C
:102B8000B0E0E3E5F0E080818F7E8C93A3E5B0E0D8
:102B9000E3E5F0E0808180628C930EC0A3E5B0E0B5
:102BA000E3E5F0E0808180618C93A3E5B0E0E3E5AC
:102BB000F0E0808180628C930F900F900F90CF9106
:102BC000DF910895DF93CF9300D00F92CDB7DEB79A
:102BD00089838981282F30E03B832A838A819B81E6
:102BE0008130910539F12A813B812230310599F0FC
:102BF0008A819B81009761F5A3E5B0E0E3E5F0E011
:102C000080818F7E8C93A3E5B0E0E3E5F0E08081E6
:102C10008F7D8C931DC0A3E5B0E0E3E5F0E08081FB
:102C20008F7E8C93A3E5B0E0E3E5F0E080818062E5
:102C30008C930EC0A3E5B0E0E3E5F0E08081806115
:102C40008C93A3E5B0E0E3E5F0E0808180628C93B3
:102C50000F900F900F90CF91DF910895DF93CF9356
:102C600000D00F92CDB7DEB789838981282F30E05D
:102C70003B832A838A819B8181309105C1F02A811F
:102C80003B812230310511F18A819B81009761F5EA
:102C9000A3E5B0E0E3E5F0E080818F7E8C93A3E5CF
:102CA000B0E0E3E5F0E080818F7D8C931DC0A3E56B
:102CB000B0E0E3E5F0E080818F7E8C93A3E5B0E0A7
:102CC000E3E5F0E0808180628C930EC0A3E5B0E084
:102CD000E3E5F0E0808180618C93A3E5B0E0E3E57B
:102CE000F0E0808180628C930F900F900F90CF91D5
:102CF000DF910895DF93CF93CDB7DEB72B970FB653
:102D0000F894DEBF0FBECDBF9B838A8319828A8170
:102D10009B81009709F45EC1EA81FB818081282FA5
:102D200030E03B872A878A859B858130910521F198
:102D30002A853B85223031052CF48A859B850097B6
:102D400061F046C02A853B852230310521F18A8514
:102D50009B858330910571F13BC0A5E4B0E0E5E4CB
:102D6000F0E080818F7B8C93A5E4B0E0E5E4F0E0B7
:102D70008081877F8C932CC0A5E4B0E0E5E4F0E08F
:102D800080818F7B8C93A5E4B0E0E5E4F0E0808166
:102D900088608C931DC0A5E4B0E0E5E4F0E080819C
:102DA00080648C93A5E4B0E0E5E4F0E08081886085
:102DB0008C930EC0A5E4B0E0E5E4F0E0808180648F
:102DC0008C93A5E4B0E0E5E4F0E08081877F8C930C
:102DD000EA81FB818081813009F05DC0EA81FB815D
:102DE0008181282F30E0398728878885998581302F
:102DF000910521F128853985223031052CF488850B
:102E00009985009761F0D7C0288539852230310532
:102E100021F1888599858330910571F1CCC0A5E4B5
:102E2000B0E0E5E4F0E080818F7E8C93A5E4B0E033
:102E3000E5E4F0E080818F7D8C93BDC0A5E4B0E037
:102E4000E5E4F0E0808180618C93A5E4B0E0E5E406
:102E5000F0E080818F7D8C93AEC0A5E4B0E0E5E426
:102E6000F0E080818F7E8C93A5E4B0E0E5E4F0E0B3
:102E7000808180628C939FC0A5E4B0E0E5E4F0E03F
:102E8000808180618C93A5E4B0E0E5E4F0E080818E
:102E900080628C9390C0EA81FB818081823009F04E
:102EA00043C0EA81FB818281282F30E03F832E835B
:102EB0008E819F818130910541F12E813F812230A9
:102EC0003105A1F08E819F81009709F074C0A5E4BF
:102ED000B0E0E5E4F0E080818F7E8C93A5E4B0E083
:102EE000E5E4F0E080818F7D8C9365C0A5E4B0E0DF
:102EF000E5E4F0E080818F7E8C93A5E4B0E0E5E42A
:102F0000F0E0808180628C9356C0A5E4B0E0E5E4F7
:102F1000F0E0808180618C93A5E4B0E0E5E4F0E02E
:102F2000808180628C9347C0EA81FB8180818330FD
:102F300009F041C0EA81FB818381282F30E03D8385
:102F40002C838C819D8181309105C1F02C813D8144
:102F50002230310511F18C819D81009761F5A5E446
:102F6000B0E0E5E4F0E080818F7E8C93A5E4B0E0F2
:102F7000E5E4F0E080818F7D8C931DC0A5E4B0E096
:102F8000E5E4F0E080818F7E8C93A5E4B0E0E5E499
:102F9000F0E0808180628C930EC0A5E4B0E0E5E4AF
:102FA000F0E0808180618C93A5E4B0E0E5E4F0E09E
:102FB000808180628C93A5E4B0E0E5E4F0E080815C
:102FC000887F8C93A5E4B0E0E5E4F0E08081826046
:102FD0008C9302C082E0898389812B960FB6F89486
:102FE000DEBF0FBECDBFCF91DF910895DF93CF93AA
:102FF0000F92CDB7DEB78983E4E4F0E08981808366
:103000000F90CF91DF910895DF93CF930F92CDB7BB
:10301000DEB78983E3E4F0E0898180830F90CF916C
:10302000DF910895DF93CF9300D00F92CDB7DEB735
:1030300089838981282F30E03B832A838A819B8181
:103040008130910521F12A813B81223031052CF418
:103050008A819B81009761F046C02A813B812230A2
:10306000310521F18A819B818330910571F13BC04B
:10307000A5E4B0E0E5E4F0E080818F7E8C93A5E4E8
:10308000B0E0E5E4F0E080818F7D8C932CC0A5E476
:10309000B0E0E5E4F0E0808180618C93A5E4B0E0ED
:1030A000E5E4F0E080818F7D8C931DC0A5E4B0E065
:1030B000E5E4F0E080818F7E8C93A5E4B0E0E5E468
:1030C000F0E0808180628C930EC0A5E4B0E0E5E47E
:1030D000F0E0808180618C93A5E4B0E0E5E4F0E06D
:1030E000808180628C930F900F900F90CF91DF9131
:1030F0000895DF93CF9300D00F92CDB7DEB78983C9
:103100008981282F30E03B832A838A819B8181300B
:10311000910539F12A813B812230310599F08A816C
:103120009B81009761F5A3E5B0E0E3E5F0E08081E5
:103130008F7E8C93A5E4B0E0E5E4F0E080818F7DA4
:103140008C931DC0A5E4B0E0E5E4F0E080818F7EC3
:103150008C93A5E4B0E0E5E4F0E0808180628C939C
:103160000EC0A5E4B0E0E5E4F0E0808180618C93DE
:10317000A5E4B0E0E5E4F0E0808180628C930F90FC
:103180000F900F90CF91DF910895DF93CF9300D0F0
:103190000F92CDB7DEB789838981282F30E03B833A
:1031A0002A838A819B8181309105C1F02A813B81EC
:1031B0002230310511F18A819B81009761F5A5E4E8
:1031C000B0E0E5E4F0E080818F7E8C93A5E4B0E090
:1031D000E5E4F0E080818F7D8C931DC0A5E4B0E034
:1031E000E5E4F0E080818F7E8C93A5E4B0E0E5E437
:1031F000F0E0808180628C930EC0A5E4B0E0E5E44D
:10320000F0E0808180618C93A5E4B0E0E5E4F0E03B
:10321000808180628C930F900F900F90CF91DF91FF
:103220000895DF93CF93CDB7DEB72B970FB6F89401
:10323000DEBF0FBECDBF9B838A8319828A819B81AB
:10324000009709F45AC4EA81FB818081282F30E07D
:103250003B872A878A859B858730910509F424C19D
:103260002A853B85283031054CF58A859B8583303E
:10327000910509F4A5C02A853B85243031058CF4DD
:103280008A859B858130910509F460C02A853B853C
:10329000223031050CF077C08A859B850097C9F1F3
:1032A000EAC12A853B852530310509F4C3C08A85EA
:1032B0009B85863091050CF0DAC09FC02A853B853E
:1032C0002B30310509F447C18A859B858C309105E7
:1032D0006CF42A853B852930310509F402C18A85C1
:1032E0009B858A3091050CF053C118C12A853B8516
:1032F0002D30310509F486C18A859B858D30910575
:103300000CF463C12A853B852E30310509F497C141
:10331000B2C1AFE4B0E0EFE4F0E080818E7F8C9347
:10332000AFE4B0E0EFE4F0E080818D7F8C93AEE419
:10333000B0E0EEE4F0E08081877F8C93AEE4B0E013
:10334000EEE4F0E080818F7E8C9395C1AFE4B0E035
:10335000EFE4F0E0808181608C93AFE4B0E0EFE4D3
:10336000F0E080818D7F8C93AEE4B0E0EEE4F0E09D
:103370008081877F8C93AEE4B0E0EEE4F0E0808162
:103380008F7E8C9378C1AFE4B0E0EFE4F0E0808111
:103390008E7F8C93AFE4B0E0EFE4F0E08081826058
:1033A0008C93AEE4B0E0EEE4F0E08081877F8C9314
:1033B000AEE4B0E0EEE4F0E080818F7E8C935BC100
:1033C000AFE4B0E0EFE4F0E0808181608C93AFE4A3
:1033D000B0E0EFE4F0E0808182608C93AEE4B0E096
:1033E000EEE4F0E08081877F8C93AEE4B0E0EEE421
:1033F000F0E080818F7E8C933EC1AFE4B0E0EFE4DB
:10340000F0E080818E7F8C93AFE4B0E0EFE4F0E0F9
:1034100080818D7F8C93AEE4B0E0EEE4F0E08081BB
:1034200088608C93AEE4B0E0EEE4F0E080818F7EC3
:103430008C9321C1AFE4B0E0EFE4F0E080818160E3
:103440008C93AFE4B0E0EFE4F0E080818D7F8C936B
:10345000AEE4B0E0EEE4F0E0808188608C93AEE40E
:10346000B0E0EEE4F0E080818F7E8C9304C1AFE4A5
:10347000B0E0EFE4F0E080818E7F8C93AFE4B0E0C9
:10348000EFE4F0E0808182608C93AEE4B0E0EEE4A3
:10349000F0E0808188608C93AEE4B0E0EEE4F0E090
:1034A00080818F7E8C93E7C0AFE4B0E0EFE4F0E082
:1034B000808181608C93AFE4B0E0EFE4F0E0808144
:1034C00082608C93AEE4B0E0EEE4F0E0808188604E
:1034D0008C93AEE4B0E0EEE4F0E080818F7E8C93DC
:1034E000CAC0AFE4B0E0EFE4F0E080818E7F8C935F
:1034F000AFE4B0E0EFE4F0E080818D7F8C93AEE448
:10350000B0E0EEE4F0E08081877F8C93AEE4B0E041
:10351000EEE4F0E0808180618C93ADC0AFE4B0E078
:10352000EFE4F0E0808181608C93AFE4B0E0EFE401
:10353000F0E080818D7F8C93AEE4B0E0EEE4F0E0CB
:103540008081877F8C93AEE4B0E0EEE4F0E0808190
:1035500080618C9390C0AFE4B0E0EFE4F0E0808154
:103560008E7F8C93AFE4B0E0EFE4F0E08081826086
:103570008C93AEE4B0E0EEE4F0E08081877F8C9342
:10358000AEE4B0E0EEE4F0E0808180618C9373C043
:10359000AFE4B0E0EFE4F0E0808181608C93AFE4D1
:1035A000B0E0EFE4F0E0808182608C93AEE4B0E0C4
:1035B000EEE4F0E08081877F8C93AEE4B0E0EEE44F
:1035C000F0E0808180618C9356C0AFE4B0E0EFE41E
:1035D000F0E080818E7F8C93AFE4B0E0EFE4F0E028
:1035E00080818D7F8C93AEE4B0E0EEE4F0E08081EA
:1035F00088608C93AEE4B0E0EEE4F0E0808180611E
:103600008C9339C0AFE4B0E0EFE4F0E080818E7FCE
:103610008C93AFE4B0E0EFE4F0E0808182608C93C3
:10362000AEE4B0E0EEE4F0E0808188608C93AEE43C
:10363000B0E0EEE4F0E0808180618C931CC0AFE4E8
:10364000B0E0EFE4F0E0808181608C93AFE4B0E023
:10365000EFE4F0E0808182608C93AEE4B0E0EEE4D1
:10366000F0E0808188608C93AEE4B0E0EEE4F0E0BE
:10367000808180618C93EA81FB8180818823E9F4D9
:10368000AFE4B0E0EFE4F0E080818F7B8C93AFE4B7
:10369000B0E0EFE4F0E080818F778C93AFE4B0E0AE
:1036A000EFE4F0E080818F7E8C93AFE4B0E0EFE454
:1036B000F0E080818F7D8C930EC2EA81FB81808156
:1036C0008C3031F0EA81FB818081843009F0C8C000
:1036D000EA81FB818181282F30E03987288788851E
:1036E00099858130910509F440C0288539852230BB
:1036F00031052CF488859985009771F0ECC12885F7
:1037000039852230310509F459C08885998583307F
:10371000910509F47CC0DFC1EA81FB8184818823A3
:1037200079F4AFE4B0E0EFE4F0E080818F7B8C933C
:10373000AFE4B0E0EFE4F0E080818F778C93CBC111
:10374000EA81FB818481813009F0C5C1AFE4B0E03A
:10375000EFE4F0E080818F7E8C93AFE4B0E0EFE4A3
:10376000F0E080818F7D8C93B6C1EA81FB818481FA
:10377000882379F4AFE4B0E0EFE4F0E08081806486
:103780008C93AFE4B0E0EFE4F0E080818F778C932E
:10379000A2C1EA81FB818481813009F09CC1AFE440
:1037A000B0E0EFE4F0E0808180618C93AFE4B0E0C2
:1037B000EFE4F0E080818F7D8C938DC1EA81FB8105
:1037C0008481882379F4AFE4B0E0EFE4F0E0808115
:1037D0008F7B8C93AFE4B0E0EFE4F0E08081806811
:1037E0008C9379C1EA81FB818481813009F073C1B6
:1037F000AFE4B0E0EFE4F0E080818F7E8C93AFE443
:10380000B0E0EFE4F0E0808180628C9364C1EA81F3
:10381000FB818481882379F4AFE4B0E0EFE4F0E049
:10382000808180648C93AFE4B0E0EFE4F0E08081CD
:1038300080688C9350C1EA81FB818481813009F0DA
:103840004AC1AFE4B0E0EFE4F0E0808180618C93A6
:10385000AFE4B0E0EFE4F0E0808180628C933BC1A4
:10386000EA81FB8180818730A9F0EA81FB81808138
:10387000853081F0EA81FB818081863059F0EA81D0
:10388000FB8180818D3031F0EA81FB8180818E3037
:1038900009F092C0EA81FB818281282F30E03F83CA
:1038A0002E838E819F818130910509F45CC02E8129
:1038B0003F812230310571F18E819F81009709F09F
:1038C0000AC1EA81FB818481882379F4AFE4B0E006
:1038D000EFE4F0E080818F7B8C93AFE4B0E0EFE425
:1038E000F0E080818F778C93F6C0EA81FB81848140
:1038F000813009F0F0C0AFE4B0E0EFE4F0E08081A7
:103900008F7E8C93AFE4B0E0EFE4F0E080818F7DB8
:103910008C93E1C0EA81FB818481882379F4AFE450
:10392000B0E0EFE4F0E080818F7B8C93AFE4B0E017
:10393000EFE4F0E0808180688C93CDC0EA81FB8168
:103940008481813009F0C7C0AFE4B0E0EFE4F0E07B
:1039500080818F7E8C93AFE4B0E0EFE4F0E0808173
:1039600080628C93B8C0EA81FB818481882379F4DA
:10397000AFE4B0E0EFE4F0E0808180648C93AFE4EA
:10398000B0E0EFE4F0E0808180688C93A4C0EA812D
:10399000FB818481813009F09EC0AFE4B0E0EFE4A8
:1039A000F0E0808180618C93AFE4B0E0EFE4F0E080
:1039B000808180628C938FC0EA81FB818381282F74
:1039C00030E03D832C838C819D8181309105A1F174
:1039D0002C813D812230310509F456C08C819D81B6
:1039E000009709F078C0EA81FB818481882379F40B
:1039F000AFE4B0E0EFE4F0E080818F7B8C93AFE444
:103A0000B0E0EFE4F0E080818F778C9364C0EA81CE
:103A1000FB818481813009F05EC0AFE4B0E0EFE467
:103A2000F0E080818F7E8C93AFE4B0E0EFE4F0E0D3
:103A300080818F7D8C934FC0EA81FB8184818823B4
:103A400079F4AFE4B0E0EFE4F0E080818F7B8C9319
:103A5000AFE4B0E0EFE4F0E0808180688C933BC09D
:103A6000EA81FB8184818130B1F5AFE4B0E0EFE41D
:103A7000F0E080818F7E8C93AFE4B0E0EFE4F0E083
:103A8000808180628C9327C0EA81FB8184818823B6
:103A900079F4AFE4B0E0EFE4F0E0808180648C93EF
:103AA000AFE4B0E0EFE4F0E0808180688C9313C075
:103AB000EA81FB818481813071F4AFE4B0E0EFE40E
:103AC000F0E0808180618C93AFE4B0E0EFE4F0E05F
:103AD000808180628C93AEE4B0E0EEE4F0E080811F
:103AE000887F8C93AEE4B0E0EEE4F0E08081826009
:103AF0008C9382E080933E0202C082E089838981B8
:103B00002B960FB6F894DEBF0FBECDBFCF91DF91DD
:103B10000895DF93CF9300D000D0CDB7DEB789836F
:103B20006A838981282F30E03C832B838B819C81A1
:103B300081309105E1F12B813C81223031052CF45B
:103B40008B819C81009771F09EC02B813C8122303B
:103B5000310509F451C08B819C818330910509F4B2
:103B60006FC091C08A81882379F4AFE4B0E0EFE4BC
:103B7000F0E080818F7B8C93AFE4B0E0EFE4F0E085
:103B800080818F778C937FC08A81813009F07BC0E0
:103B9000AFE4B0E0EFE4F0E080818F7E8C93AFE49F
:103BA000B0E0EFE4F0E080818F7D8C936CC08A817F
:103BB000882379F4AFE4B0E0EFE4F0E08081806442
:103BC0008C93AFE4B0E0EFE4F0E080818F778C93EA
:103BD0005AC08A81813009F056C0AFE4B0E0EFE40A
:103BE000F0E0808180618C93AFE4B0E0EFE4F0E03E
:103BF00080818F7D8C9347C08A81882379F4AFE4DC
:103C0000B0E0EFE4F0E080818F7B8C93AFE4B0E034
:103C1000EFE4F0E0808180688C9335C08A81813048
:103C200091F5AFE4B0E0EFE4F0E080818F7E8C931B
:103C3000AFE4B0E0EFE4F0E0808180628C9323C0D9
:103C40008A81882379F4AFE4B0E0EFE4F0E080818A
:103C500080648C93AFE4B0E0EFE4F0E080818068B2
:103C60008C9311C08A81813071F4AFE4B0E0EFE44D
:103C7000F0E0808180618C93AFE4B0E0EFE4F0E0AD
:103C8000808180628C930F900F900F900F90CF9156
:103C9000DF910895DF93CF9300D000D0CDB7DEB78A
:103CA00089836A838981282F30E03C832B838B8131
:103CB0009C818130910581F12B813C81223031053D
:103CC00009F44EC08B819C81009709F06CC08A81F9
:103CD000882379F4AFE4B0E0EFE4F0E080818F7BFB
:103CE0008C93AFE4B0E0EFE4F0E080818F778C93C9
:103CF0005AC08A81813009F056C0AFE4B0E0EFE4E9
:103D0000F0E080818F7E8C93AFE4B0E0EFE4F0E0F0
:103D100080818F7D8C9347C08A81882379F4AFE4BA
:103D2000B0E0EFE4F0E080818F7B8C93AFE4B0E013
:103D3000EFE4F0E0808180688C9335C08A81813027
:103D400091F5AFE4B0E0EFE4F0E080818F7E8C93FA
:103D5000AFE4B0E0EFE4F0E0808180628C9323C0B8
:103D60008A81882379F4AFE4B0E0EFE4F0E0808169
:103D700080648C93AFE4B0E0EFE4F0E08081806891
:103D80008C9311C08A81813071F4AFE4B0E0EFE42C
:103D9000F0E0808180618C93AFE4B0E0EFE4F0E08C
:103DA000808180628C930F900F900F900F90CF9135
:103DB000DF910895DF93CF9300D000D0CDB7DEB769
:103DC00089836A838981282F30E03C832B838B8110
:103DD0009C818130910581F12B813C81223031051C
:103DE00009F44EC08B819C81009709F06CC08A81D8
:103DF000882379F4AFE4B0E0EFE4F0E080818F7BDA
:103E00008C93AFE4B0E0EFE4F0E080818F778C93A7
:103E10005AC08A81813009F056C0AFE4B0E0EFE4C7
:103E2000F0E080818F7E8C93AFE4B0E0EFE4F0E0CF
:103E300080818F7D8C9347C08A81882379F4AFE499
:103E4000B0E0EFE4F0E080818F7B8C93AFE4B0E0F2
:103E5000EFE4F0E0808180688C9335C08A81813006
:103E600091F5AFE4B0E0EFE4F0E080818F7E8C93D9
:103E7000AFE4B0E0EFE4F0E0808180628C9323C097
:103E80008A81882379F4AFE4B0E0EFE4F0E0808148
:103E900080648C93AFE4B0E0EFE4F0E08081806870
:103EA0008C9311C08A81813071F4AFE4B0E0EFE40B
:103EB000F0E0808180618C93AFE4B0E0EFE4F0E06B
:103EC000808180628C930F900F900F900F90CF9114
:103ED000DF910895DF93CF9300D00F92CDB7DEB777
:103EE00089838981282F30E03B832A838A819B81C3
:103EF0008330910509F441C02A813B81243031058A
:103F00007CF48A819B818130910539F12A813B8142
:103F10002230310554F58A819B810097B1F054C05D
:103F20002A813B8125303105C1F18A819B81853011
:103F300091055CF12A813B8126303105B1F18A81FE
:103F40009B8187309105C9F13FC0A9E5B0E0E9E563
:103F5000F0E0808181608C9337C0A9E5B0E0E9E5AD
:103F6000F0E0808182608C932FC0A9E5B0E0E9E5A4
:103F7000F0E0808180648C9327C0A9E5B0E0E9E59A
:103F8000F0E0808180688C931FC0A9E5B0E0E9E58E
:103F9000F0E0808184608C9317C0A9E5B0E0E9E58A
:103FA000F0E0808180618C930FC0A9E5B0E0E9E585
:103FB000F0E0808188608C9307C0A9E5B0E0E9E576
:103FC000F0E0808180628C930F900F900F90CF91E2
:103FD000DF910895DF93CF9300D00F92CDB7DEB776
:103FE00089838981282F30E03B832A838A819B81C2
:103FF0008330910509F441C02A813B812430310589
:104000007CF48A819B818130910539F12A813B8141
:104010002230310554F58A819B810097B1F054C05C
:104020002A813B8125303105C1F18A819B81853010
:1040300091055CF12A813B8126303105B1F18A81FD
:104040009B8187309105C9F13FC0A9E5B0E0E9E562
:10405000F0E080818E7F8C9337C0A9E5B0E0E9E580
:10406000F0E080818D7F8C932FC0A9E5B0E0E9E579
:10407000F0E080818F7B8C9327C0A9E5B0E0E9E573
:10408000F0E080818F778C931FC0A9E5B0E0E9E56F
:10409000F0E080818B7F8C9317C0A9E5B0E0E9E563
:1040A000F0E080818F7E8C930FC0A9E5B0E0E9E558
:1040B000F0E08081877F8C9307C0A9E5B0E0E9E557
:1040C000F0E080818F7D8C930F900F900F90CF91B7
:1040D000DF910895DF93CF9300D000D0CDB7DEB746
:1040E0008A837C836B8319828B819C81009769F022
:1040F0008A81882F90E0880F991FFC01E25DFD4FB7
:104100008B819C819183808302C081E08983898136
:104110000F900F900F900F90CF91DF910895DF9344
:10412000CF9300D0CDB7DEB79A838983ECE4F0E07B
:1041300089819A81918380830F900F90CF91DF9135
:104140000895DF93CF9300D00F92CDB7DEB79A8357
:1041500089836B838B81882339F4EAE4F0E08981D9
:104160009A819183808309C08B81813031F4E8E4A6
:10417000F0E089819A81918380830F900F900F9056
:10418000CF91DF910895DF93CF9300D000D00F92AD
:10419000CDB7DEB79A8389836B838B81282F30E07C
:1041A0003D832C838C819D818A30910509F44FC019
:1041B0002C813D812B30310594F48C819D81883098
:1041C000910509F452C02C813D81293031050CF054
:1041D00045C08C819D8184309105E9F04CC02C81D3
:1041E0003D812C30310581F08C819D818C30910591
:1041F0003CF12C813D812D303105A1F08C819D81D8
:104200008E309105B1F037C0E6E4F0E089819A8103
:104210009183808330C0EAE4F0E089819A819183C0
:10422000808329C0E6E4F0E089819A8191838083CC
:1042300022C0EAE4F0E089819A81918380831BC0E7
:10424000E6E4F0E089819A819183808314C0EAE4F6
:10425000F0E089819A81918380830DC0E6E4F0E0EB
:1042600089819A819183808306C0EAE4F0E08981A4
:104270009A81918380830F900F900F900F900F90F1
:10428000CF91DF910895DF93CF930F92CDB7DEB733
:104290008983E1E4F0E01082E1E4F0E08981808349
:1042A0000F90CF91DF910895DF93CF93CDB7DEB715
:1042B000A1E4B0E0E1E4F0E0808188608C93CF91EC
:1042C000DF910895DF93CF93CDB7DEB7E1E4F0E05F
:1042D00088E18083E1E4F0E01082CF91DF910895DE
:1042E0001F920F920FB60F9211242F933F934F936B
:1042F0005F936F937F938F939F93AF93BF93EF934E
:10430000FF93DF93CF93CDB7DEB7809130029091CA
:104310003102009729F0E0913002F09131020995C5
:10432000CF91DF91FF91EF91BF91AF919F918F91CD
:104330007F916F915F914F913F912F910F900FBEA1
:104340000F901F9018951F920F920FB60F92112485
:104350002F933F934F935F936F937F938F939F938D
:10436000AF93BF93EF93FF93DF93CF93CDB7DEB7B8
:1043700080912E0290912F02009729F0E0912E0259
:10438000F0912F020995CF91DF91FF91EF91BF91AD
:10439000AF919F918F917F916F915F914F913F91DD
:1043A0002F910F900FBE0F901F9018951F920F9294
:1043B0000FB60F9211242F933F934F935F936F93F8
:1043C0007F938F939F93AF93BF93EF93FF93DF936D
:1043D000CF93CDB7DEB780913A0290913B02009720
:1043E00029F0E0913A02F0913B020995CF91DF91DB
:1043F000FF91EF91BF91AF919F918F917F916F91BD
:104400005F914F913F912F910F900FBE0F901F9092
:1044100018951F920F920FB60F9211242F933F936E
:104420004F935F936F937F938F939F93AF93BF93BC
:10443000EF93FF93DF93CF93CDB7DEB78091380230
:1044400090913902009729F0E0913802F0913902F9
:104450000995CF91DF91FF91EF91BF91AF919F911E
:104460008F917F916F915F914F913F912F910F901D
:104470000FBE0F901F9018951F920F920FB60F92BC
:1044800011242F933F934F935F936F937F938F9359
:104490009F93AF93BF93EF93FF93DF93CF93CDB7EA
:1044A000DEB78091340290913502009729F0E091B7
:1044B0003402F09135020995CF91DF91FF91EF9190
:1044C000BF91AF919F918F917F916F915F914F912C
:1044D0003F912F910F900FBE0F901F9018951F9234
:1044E0000F920FB60F9211242F933F934F935F9328
:1044F0006F937F938F939F93AF93BF93EF93FF93AC
:10450000DF93CF93CDB7DEB7809132029091330223
:10451000009729F0E0913202F09133020995CF9192
:10452000DF91FF91EF91BF91AF919F918F917F911B
:104530006F915F914F913F912F910F900FBE0F9010
:104540001F9018951F920F920FB60F9211242F9360
:104550003F934F935F936F937F938F939F93AF930B
:10456000BF93EF93FF93DF93CF93CDB7DEB78091E7
:104570003C0290913D02009729F0E0913C02F091BD
:104580003D020995CF91DF91FF91EF91BF91AF91DE
:104590009F918F917F916F915F914F913F912F915B
:1045A0000F900FBE0F901F9018951F920F920FB68D
:1045B0000F9211242F933F934F935F936F937F93A9
:1045C0008F939F93AF93BF93EF93FF93DF93CF931B
:1045D000CDB7DEB78091360290913702009729F06F
:1045E000E0913602F09137020995CF91DF91FF916A
:1045F000EF91BF91AF919F918F917F916F915F915B
:104600004F913F912F910F900FBE0F901F901895D3
:10461000DF93CF930F92CDB7DEB78983898188234B
:1046200029F0E2E2F0E08981880F8083A1E2B0E026
:10463000E1E2F0E080818E7F8C93A1E2B0E0E1E2E4
:10464000F0E080818D7F8C93E0E2F0E08CE080836D
:10465000A6E5B0E0E6E5F0E0808180648C93A6E515
:10466000B0E0E6E5F0E0808184608C930F90CF911C
:10467000DF910895DF93CF930F92CDB7DEB7898393
:104680008981882329F0E2E2F0E08981880F808324
:10469000A6E5B0E0E6E5F0E0808184608C930F90C1
:1046A000CF91DF910895DF93CF930F92CDB7DEB70F
:1046B0001982A6E5B0E0E6E5F0E0808180628C93A7
:1046C000A6E5B0E0E6E5F0E0808180688C93E6E561
:1046D000F0E080818823DCF7E1E2F0E08081882F40
:1046E00090E0887F90708830910511F082E0898396
:1046F00089810F90CF91DF910895DF93CF930F922F
:10470000CDB7DEB71982A6E5B0E0E6E5F0E080813E
:1047100080628C93A6E5B0E0E6E5F0E080818068F9
:104720008C93E6E5F0E080818823DCF7E1E2F0E0BD
:104730008081882F90E0887F90708031910511F002
:1047400083E0898389810F90CF91DF910895DF9372
:10475000CF9300D0CDB7DEB78A831982E3E2F0E0D1
:104760008A81880F8083A3E2B0E0E3E2F0E08081F9
:104770008E7F8C93A6E5B0E0E6E5F0E080818F7D4A
:104780008C93A6E5B0E0E6E5F0E0808180688C934C
:10479000E6E5F0E080818823DCF7E1E2F0E080816B
:1047A000882F90E0887F90708831910511F084E027
:1047B000898389810F900F90CF91DF910895DF93C6
:1047C000CF9300D0CDB7DEB78A831982E3E2F0E061
:1047D0008A81880F8083A3E2B0E0E3E2F0E0808189
:1047E00081608C93A6E5B0E0E6E5F0E080818F7D06
:1047F0008C93A6E5B0E0E6E5F0E0808180688C93DC
:10480000E6E5F0E080818823DCF7E1E2F0E08081FA
:10481000882F90E0887F90708034910511F085E0BA
:10482000898389810F900F90CF91DF910895DF9355
:10483000CF9300D0CDB7DEB78A831982E3E2F0E0F0
:104840008A818083A6E5B0E0E6E5F0E080818068BB
:104850008C93E6E5F0E080818823DCF7E1E2F0E08C
:104860008081882F90E0887F90708832910511F0C8
:1048700086E0898389810F900F90CF91DF91089511
:10488000DF93CF9300D00F92CDB7DEB79B838A839F
:1048900019828A819B81009701F1A6E5B0E0E6E5E7
:1048A000F0E0808180688C93E6E5F0E080818823E9
:1048B000DCF7E1E2F0E08081882F90E0887F907063
:1048C0008035910519F087E0898309C0E3E2F0E0C3
:1048D0008081EA81FB81808302C081E089838981B4
:1048E0000F900F900F90CF91DF910895DF93CF93AA
:1048F000CDB7DEB7A6E5B0E0E6E5F0E08081806107
:104900008C93A6E5B0E0E6E5F0E0808180688C93CA
:10491000CF91DF910895DF93CF9300D00F92CDB761
:10492000DEB71B821A821982AAE2B0E0EAE2F0E066
:10493000808180618C93AAE2B0E0EAE2F0E08081BD
:1049400088608C93AAE2B0E0EAE2F0E080818B7F9D
:104950008C938B8182608B838B8184608B838B8132
:10496000877F8B838B818F7E8B838B818F7D8B83E6
:1049700087E690E09A83898389819A818F3F9105A8
:1049800009F028F4E9E2F0E0898180830FC0E9E2D0
:10499000F0E08981808389819A81892F99279A8380
:1049A0008983E0E4F0E089818F7080838B81806867
:1049B0008B83E0E4F0E08B8180830F900F900F9069
:1049C000CF91DF910895DF93CF9300D00F92CDB7B1
:1049D000DEB78B831A821982EBE2F0E08081829548
:1049E00086958770882F90E0817090700097A1F372
:1049F000ECE2F0E08B8180830F900F900F90CF91CD
:104A0000DF910895DF93CF9300D000D0CDB7DEB70C
:104A100019821A821B821C8210924B020BC0898160
:104A20009A81AB81BC810196A11DB11D89839A83B6
:104A3000AB83BC83EBE2F0E08081882364F0898162
:104A40009A81AB81BC81813523EC920720E0A207DB
:104A500020E0B20720F389819A81AB81BC81813546
:104A600023EC920720E0A20720E0B20720F081E0CB
:104A700080934B0204C019821A821B821C82ECE2D2
:104A8000F0E080810F900F900F900F90CF91DF9109
:104A90000895DF93CF9300D000D0CDB7DEB79C83CD
:104AA0008B831A8219828B819C810097D9F00EC06A
:104AB0008981282F30E08B819C81FC01E20FF31F5C
:104AC00080810E94E32489818F5F89838981282FD7
:104AD00030E08B819C81FC01E20FF31F80818823F1
:104AE00039F702C082E08A838A810F900F900F907D
:104AF0000F90CF91DF9108950F931F93DF93CF9382
:104B000000D000D0CDB7DEB79B838A836C83198237
:104B100013C08981282F30E08A819B818C01020F8C
:104B2000131F0E940225F801808389818F5F89838A
:104B300080914B02813021F099818C81981748F344
:104B400081E00F900F900F900F90CF91DF911F9108
:104B50000F910895DF93CF9300D000D000D0CDB750
:104B6000DEB79B838A836C835E834D8319828D813C
:104B70009E81009739F18D819E81909342028093AE
:104B800041028A819B8190934402809343028C81ED
:104B90008093470210924902AAE2B0E0EAE2F0E014
:104BA000808180648C93ACE2B0E02091430230912C
:104BB000440280914902882F90E0F901E80FF91F23
:104BC00080818C93898126960FB6F894DEBF0FBE44
:104BD000CDBFCF91DF910895DF93CF9300D000D068
:104BE00000D0CDB7DEB79B838A836C835E834D8311
:104BF00019828D819E81009739F18D819E819093DC
:104C0000400280933F028A819B8190934602809369
:104C100045028C818093480210924A02AAE2B0E0D9
:104C2000EAE2F0E0808180688C9320914502309127
:104C3000460280914A02882F90E0D901A80FB91F3F
:104C4000ECE2F0E080818C93898126960FB6F8948F
:104C5000DEBF0FBECDBFCF91DF9108951F920F929F
:104C60000FB60F9211242F933F934F935F936F933F
:104C70007F938F939F93AF93BF93EF93FF93DF93B4
:104C8000CF93CDB7DEB78091430290914402009755
:104C900079F1809149028F5F809349029091490296
:104CA00080914702981780F4ACE2B0E02091430273
:104CB0003091440280914902882F90E0F901E80F79
:104CC000F91F80818C9314C010924902AAE2B0E0CF
:104CD000EAE2F0E080818F7B8C9380914102909199
:104CE0004202009729F0E0914102F09142020995B9
:104CF000CF91DF91FF91EF91BF91AF919F918F91F4
:104D00007F916F915F914F913F912F910F900FBEC7
:104D10000F901F9018951F920F920FB60F921124AB
:104D20002F933F934F935F936F937F938F939F93B3
:104D3000AF93BF93EF93FF93DF93CF93CDB7DEB7DE
:104D40008091450290914602009779F180914A0244
:104D50008F5F80934A0290914A028091480298178F
:104D600080F4209145023091460280914A02882FBA
:104D700090E0D901A80FB91FECE2F0E080818C939C
:104D800014C010924A02AAE2B0E0EAE2F0E08081A8
:104D90008F778C9380913F0290914002009729F089
:104DA000E0913F02F09140020995CF91DF91FF9190
:104DB000EF91BF91AF919F918F917F916F915F9193
:104DC0004F913F912F910F900FBE0F901F9018950C
:104DD000DF93CF93CDB7DEB7AAE2B0E0EAE2F0E02E
:104DE00080818F7E8C93AAE2B0E0EAE2F0E08081DD
:104DF00080618C93CF91DF910895DF93CF93CDB7EE
:104E0000DEB765970FB6F894DEBF0FBECDBF80E06A
:104E100090E0A8ECB2E48B879C87AD87BE876B855A
:104E20007C858D859E8520E030E04AE753E40E9432
:104E30001F02DC01CB018F839887A987BA876F8116
:104E4000788589859A8520E030E040E85FE30E941C
:104E5000790388232CF481E090E09E838D833FC00A
:104E60006F81788589859A8520E03FEF4FE757E489
:104E70000E94190318164CF56B857C858D859E85DF
:104E800020E030E040E251E40E941F02DC01CB014F
:104E9000BC01CD010E944900DC01CB019E838D83C2
:104EA0000FC089E190E09C838B838B819C8101976B
:104EB000F1F79C838B838D819E8101979E838D83E7
:104EC0008D819E81009769F714C06F8178858985EF
:104ED0009A850E944900DC01CB019E838D838D81E0
:104EE0009E819A83898389819A810197F1F79A83B8
:104EF00089831B8A1A8A0E94B7108AE00E940823BD
:104F00000E948B2486E690E00E94492581E890E08B
:104F10000E9449258AE890E00E9449250DC00E9420
:104F2000E8268CE492E06BE10E947C258A8B8091DC
:104F30004C02882309F41A8A8A89882381F31A8A01
:104F40008CE492E06BE10E9411288B8B8B89282FD7
:104F500030E03D8B2C8B8C899D898130910579F0D7
:104F60002C893D892230310509F44AC08C899D89FC
:104F7000009711F785E990E00E944925DDCF198A55
:104F800003C00E944D29898B89898823D1F389899F
:104F9000813089F582EA90E00E9449250E94102A1A
:104FA0000E94E8260BC08CE492E06BE10E947C2515
:104FB0008A8B80914C02882309F41A8A8A89882373
:104FC00091F38A89813061F7188A8CE492E06BE171
:104FD0000E943F2A888B88890E94F22B1A8A88892E
:104FE0008A3009F4A9CF88898823D1F685E990E031
:104FF0000E944925D5CF84EB90E00E9449259CCFA3
:105000001F8603C00E9498288F878F858823D1F33D
:105010008F85813009F090CF83EC90E00E94492584
:105020008BCFDF93CF93CDB7DEB729970FB6F89428
:10503000DEBF0FBECDBF98878F8369871E821D821A
:1050400087ED90E09C838B838EED90E09A8389833B
:105050001CC08D81282F30E08F819885FC01E20FE4
:10506000F31F40818D81282F30E08B819C81FC01D2
:10507000E20FF31F8081481731F481E08E838D8128
:105080008F5F8D8302C01E820BC08D81282F30E080
:105090008B819C81FC01E20FF31F80818823C9F67C
:1050A0008E81882349F51D821CC08D81282F30E018
:1050B0008F819885FC01E20FF31F40818D81282F9D
:1050C00030E089819A81FC01E20FF31F808148174B
:1050D00031F482E08E838D818F5F8D8302C01E82CA
:1050E0000BC08D81282F30E089819A81FC01E20F6D
:1050F000F31F80818823C9F61D820CC08D81282F63
:1051000030E08F819885FC01E20FF31F10828D81C2
:105110008F5F8D839D818985981780F38E81299675
:105120000FB6F894DEBF0FBECDBFCF91DF910895CB
:10513000DF93CF93CDB7DEB72D970FB6F894DEBFD0
:105140000FBECDBF1D821C821B821A8219821E8255
:105150001F82188619861A861B861C861D8687EE76
:1051600090E00E9449250E94E8260AC0CE010696DA
:1051700063E00E947C258D838E81882309F41D8243
:105180008D81882399F31D828DEF90E00E9449253F
:105190000E94E8260AC0CE010A9663E00E947C25A0
:1051A0008D838A85882309F41D828D81882399F354
:1051B0001C8260C08C81482F50E08C81282F30E009
:1051C000CE010696FC01E20FF31F8081282F2053A9
:1051D000CE010696FC01E40FF51F20838C81482F39
:1051E00050E08C81282F30E0CE010A96FC01E20FBE
:1051F000F31F8081282F2053CE010A96FC01E40F73
:10520000F51F208389819A819C01220F331FC901D8
:10521000880F991F880F991FA901480F591F8C816A
:10522000282F30E0CE010696FC01E20FF31F8081AB
:10523000882F90E0840F951F9A8389838B81882F14
:1052400090E09C01220F331FC901880F991F880F1E
:10525000991F820F931F482F8C81282F30E0CE0199
:105260000A96FC01E20FF31F8081840F8B838C81EF
:105270008F5F8C838C81833008F49CCF89819A81E5
:105280006B810E94C10F81E02D960FB6F894DEBFAE
:105290000FBECDBFCF91DF910895DF93CF93CDB7F0
:1052A000DEB72F970FB6F894DEBF0FBECDBF1E82BC
:1052B0001D821C821B821A8219821F8218861986FF
:1052C0001A861B861C861D861E861F8689E191E034
:1052D0000E9449250E94E8260AC0CE01089663E094
:1052E0000E947C258E838885882309F41E828E8106
:1052F000882399F31E8280E391E00E9449250E9451
:10530000E8260AC0CE010C9663E00E947C258E83BD
:105310008C85882309F41E828E81882399F31C8250
:1053200060C08C81482F50E08C81282F30E0CE0166
:105330000896FC01E20FF31F8081282F2053CE0135
:105340000896FC01E40FF51F20838C81482F50E064
:105350008C81282F30E0CE010C96FC01E20FF31F68
:105360008081282F2053CE010C96FC01E40FF51FFD
:10537000208389819A819C01220F331FC901880FE4
:10538000991F880F991FA901480F591F8C81282F39
:1053900030E0CE010896FC01E20FF31F8081882FD8
:1053A00090E0840F951F9A8389838B81882F90E0EA
:1053B0009C01220F331FC901880F991F880F991F65
:1053C000820F931F482F8C81282F30E0CE010C963E
:1053D000FC01E20FF31F8081840F8B838C818F5F30
:1053E0008C838C81833008F49CCF89819A819E01C3
:1053F000295F3F4FB9010E9468109F818B818917F7
:1054000019F481E08D8302C082E08D838D812F9617
:105410000FB6F894DEBF0FBECDBFCF91DF910895D8
:10542000DF93CF93CDB7DEB78DE491E00E9449259D
:105430008FE491E00E94492581E591E00E94492591
:1054400083E591E00E94492585E591E00E94492588
:1054500087E591E00E94492589E591E00E94492570
:105460008BE591E00E9449258DE591E00E94492558
:105470008FE591E00E944925CF91DF910895DF9358
:10548000CF9300D000D00F92CDB7DEB79C838B8333
:105490006D831A8219821AC08981282F30E08B818E
:1054A0009C81FC01E20FF31F20818981882F90E00D
:1054B000FC01E550FE4F8081281731F481E08A839A
:1054C00089818F5F898302C01A8209C08981882FF0
:1054D00090E0FC01E550FE4F80818823E9F68A8147
:1054E000882329F519821AC08981282F30E08B8101
:1054F0009C81FC01E20FF31F20818981882F90E0BD
:10550000FC01E451FE4F8081281731F482E08A8348
:1055100089818F5F898302C01A8209C08981882F9F
:1055200090E0FC01E451FE4F80818823E9F68A81F6
:10553000882329F519821AC08981282F30E08B81B0
:105540009C81FC01E20FF31F20818981882F90E06C
:10555000FC01E252FE4F8081281731F483E08A83F8
:1055600089818F5F898302C01A8209C08981882F4F
:1055700090E0FC01E252FE4F80818823E9F68A81A7
:10558000882329F519821AC08981282F30E08B8160
:105590009C81FC01E20FF31F20818981882F90E01C
:1055A000FC01E053FE4F8081281731F484E08A83A8
:1055B00089818F5F898302C01A8209C08981882FFF
:1055C00090E0FC01E053FE4F80818823E9F68A8158
:1055D000882329F519821AC08981282F30E08B8110
:1055E0009C81FC01E20FF31F20818981882F90E0CC
:1055F000FC01EF53FE4F8081281731F485E08A8348
:1056000089818F5F898302C01A8209C08981882FAE
:1056100090E0FC01EF53FE4F80818823E9F68A81F8
:10562000882329F519821AC08981282F30E08B81BF
:105630009C81FC01E20FF31F20818981882F90E07B
:10564000FC01EE54FE4F8081281731F486E08A83F6
:1056500089818F5F898302C01A8209C08981882F5E
:1056600090E0FC01EE54FE4F80818823E9F68A81A8
:10567000882329F519821AC08981282F30E08B816F
:105680009C81FC01E20FF31F20818981882F90E02B
:10569000FC01EE55FE4F8081281731F487E08A83A4
:1056A00089818F5F898302C01A8209C08981882F0E
:1056B00090E0FC01EE55FE4F80818823E9F68A8157
:1056C000882329F519821AC08981282F30E08B811F
:1056D0009C81FC01E20FF31F20818981882F90E0DB
:1056E000FC01EC57FE4F8081281731F488E08A8353
:1056F00089818F5F898302C01A8209C08981882FBE
:1057000090E0FC01EC57FE4F80818823E9F68A8106
:10571000882329F519821AC08981282F30E08B81CE
:105720009C81FC01E20FF31F20818981882F90E08A
:10573000FC01E358FE4F8081281731F489E08A8309
:1057400089818F5F898302C01A8209C08981882F6D
:1057500090E0FC01E358FE4F80818823E9F68A81BE
:10576000882329F519821AC08981282F30E08B817E
:105770009C81FC01E20FF31F20818981882F90E03A
:10578000FC01E559FE4F8081281731F48AE08A83B5
:1057900089818F5F898302C01A8209C08981882F1D
:1057A00090E0FC01E559FE4F80818823E9F61982DB
:1057B0000CC08981282F30E08B819C81FC01E20F95
:1057C000F31F108289818F5F898399818D8198175A
:1057D00080F38A810F900F900F900F900F90CF91D0
:1057E000DF910895DF93CF9300D00F92CDB7DEB74E
:1057F00089838981282F30E03B832A838A819B819A
:105800008430910599F12A813B812530310584F45A
:105810008A819B818230910519F12A813B81233055
:1058200031050CF58A819B8181309105B1F02CC046
:105830002A813B8126303105F9F08A819B818630AF
:105840009105BCF02A813B8127303105C1F08A8166
:105850009B8188309105B1F017C00E944A2C14C07A
:105860000E946F2C11C00E94E32C0EC00E94942C49
:105870000BC00E94AE2C08C00E94C82C05C00E941C
:10588000D42C02C00E94A22D0F900F900F90CF91A8
:10589000DF910895DF93CF93CDB7DEB780E061E06D
:1058A00041E00E94EE0C80E062E041E00E94EE0CDC
:1058B00080E063E041E00E94EE0C80E064E041E0C3
:1058C0000E94EE0C80E065E041E00E94EE0C80E07A
:1058D00066E041E00E94EE0CCF91DF910895DF93E6
:1058E000CF93CDB7DEB780E061E040E00E94EE0CE0
:1058F00080E062E040E00E94EE0C80E063E040E087
:105900000E94EE0C80E064E040E00E94EE0C80E03B
:1059100065E040E00E94EE0C80E066E040E00E941E
:10592000EE0CCF91DF910895DF93CF930F92CDB717
:10593000DEB7198282E089830AC062E370E080E00A
:1059400090E049810E94DB1089818F5F8983898182
:105950008D3098F30F90CF91DF910895DF93CF931F
:105960000F92CDB7DEB719828CE089830AC062E35B
:1059700070E080E090E049810E94DB1089818150D5
:1059800089838981823098F70F90CF91DF910895B4
:10599000DF93CF93CDB7DEB783E067E041E00E94AD
:1059A000EE0CCF91DF910895DF93CF93CDB7DEB7A3
:1059B00083E067E040E00E94EE0C80E00E947918EE
:1059C000CF91DF910895DF93CF9300D000D0CDB772
:1059D000DEB71C821B821A8219820E94A305A7C00F
:1059E0008CE492E06BE10E947C2589838CE492E058
:1059F0006BE10E943F2A8A839E012D5F3F4F80E02A
:105A0000B9010E94DB058B819C818F369105F8F4EA
:105A100080E061E041E00E94EE0C80E062E041E065
:105A20000E94EE0C80E063E041E00E94EE0C80E01A
:105A300064E041E00E94EE0C80E065E041E00E94FD
:105A4000EE0C80E066E041E00E94EE0C70C08B81BD
:105A50009C818F36910520F18B819C818437910543
:105A6000F8F480E061E041E00E94EE0C80E062E04A
:105A700041E00E94EE0C80E063E041E00E94EE0C09
:105A800080E064E041E00E94EE0C80E065E040E0F0
:105A90000E94EE0C80E066E040E00E94EE0C47C001
:105AA0008B819C818437910520F18B819C818E377D
:105AB0009105F8F480E061E041E00E94EE0C80E0A6
:105AC00062E041E00E94EE0C80E063E040E00E9472
:105AD000EE0C80E064E040E00E94EE0C80E065E0C7
