:100000000C942A000C94A8120C94DB120C940E137E
:100010000C9447000C9447000C9447000C94470044
:100020000C9447000C9447000C94331A0C9447002E
:100030000C9447000C9447000C9447000C94470024
:100040000C942B070C9447000C9447000C94470029
:100050000C94470011241FBECFE5D8E0DEBFCDBF12
:1000600011E0A0E6B0E0E0EEF4E402C005900D92ED
:10007000A833B107D9F711E0A8E3B1E001C01D92A0
:10008000A436B107E1F70E94661A0C946E220C9414
:100090000000EF92FF920F931F937B018C0120E0F1
:1000A00030E040E05FE40E94490388238CF0C801FF
:1000B000B70120E030E040E05FE40E94C1010E940F
:1000C000A9039B01AC01205030404040504806C07D
:1000D000C801B7010E94A9039B01AC01B901CA0183
:1000E0001F910F91FF90EF900895A0E0B0E0EBE733
:1000F000F0E00C943722DC012B01FA019C91923044
:1001000008F439C1EB018881823008F433C194309E
:1001100069F4843009F02FC111969C91119789815F
:10012000981709F428C1A2E0B1E025C1843009F490
:1001300021C18230A9F4923009F01DC19A01AD01AC
:1001400088E0EA010990AE01E90109929E0181501F
:10015000C1F7E201898111969C918923818308C1AD
:10016000923009F407C112962D903C901397EB0141
:100170008A819B811496AD90BD90CD90DC901797AD
:10018000EC80FD800E811F819101281B390BB90184
:1001900037FF04C066277727621B730B6032710537
:1001A0000CF061C0121613066CF537014801062EDB
:1001B00004C096948794779467940A94D2F721E0C8
:1001C00030E040E050E004C0220F331F441F551FB1
:1001D0006A95D2F721503040404050402E213F21B7
:1001E00040235123211531054105510521F021E01E
:1001F00030E040E050E079018A01E628F72808293C
:1002000019293CC0232BD1F1260E371E350146019A
:10021000062E04C096948794779467940A94D2F734
:1002200021E030E040E050E004C0220F331F441FC3
:10023000551F6A95D2F721503040404050402A2146
:100240003B214C215D21211531054105510521F04E
:1002500021E030E040E050E059016A01A628B728CB
:10026000C828D9280BC0821593052CF01C01AA249C
:10027000BB24650103C0EE24FF24870111969C91E5
:10028000D20111968C91981709F445C0992339F041
:10029000A80197012A193B094C095D0906C0A6016E
:1002A00095012E193F09400B510B57FD08C01182D3
:1002B0003382228224833583468357831DC081E0A5
:1002C00081833382228288279927DC01821B930B4A
:1002D000A40BB50B84839583A683B7830DC0220F2F
:1002E000331F441F551F24833583468357838281E0
:1002F000938101979383828324813581468157813D
:10030000DA01C9010197A109B1098F5F9F4FAF4F72
:10031000BF4328F30BC0918333822282EA0CFB1C7B
:100320000C1D1D1DE482F5820683178383E0808304
:10033000248135814681578157FF1AC0C901AA27F8
:1003400097FDA095BA2F81709070A070B0705695EF
:10035000479537952795822B932BA42BB52B848318
:100360009583A683B7838281938101969383828349
:10037000DF0101C0D201CD01CDB7DEB7E2E10C94BF
:100380005322A0E2B0E0E7ECF1E00C944322698351
:100390007A838B839C832D833E834F835887E9E048
:1003A000EE2EF12CEC0EFD1ECE010196B7010E943F
:1003B000D2048E010F5E1F4FCE010596B8010E9438
:1003C000D2048A8991E089278A8BC701B801AE01DE
:1003D000475E5F4F0E9475000E94FD03A096E6E015
:1003E0000C945F22A0E2B0E0E8EFF1E00C9443222D
:1003F00069837A838B839C832D833E834F835887C5
:10040000F9E0EF2EF12CEC0EFD1ECE010196B701A6
:100410000E94D2048E010F5E1F4FCE010596B801D7
:100420000E94D204C701B801AE01475E5F4F0E942F
:1004300075000E94FD03A096E6E00C945F22A0E206
:10044000B0E0E5E2F2E00C94372269837A838B8393
:100450009C832D833E834F835887CE010196BE0136
:10046000675F7F4F0E94D204CE010596BE016F5E8A
:100470007F4F0E94D2049985923088F0898982301A
:10048000C8F0943019F4823051F404C0843029F457
:10049000923081F482E091E0C6C0923049F420E0CD
:1004A0009A858A89981321E02A87CE010996BBC0D4
:1004B000823049F420E09A858A89981321E02A8BBA
:1004C000CE014196B0C02D843E844F8458886D88FB
:1004D0007E888F88988CEE24FF248701AA24BB2471
:1004E000650140E050E060E070E0E0E0F0E0C10174
:1004F00081709070892BE9F0E60CF71C081D191D1E
:100500009A01AB012A0D3B1D4C1D5D1D80E090E062
:10051000A0E0B0E0E614F7040805190520F481E036
:1005200090E0A0E0B0E0BA01A901480F591F6A1F8E
:100530007B1FAA0CBB1CCC1CDD1C97FE08C081E0F5
:1005400090E0A0E0B0E0A82AB92ACA2ADB2A3196B6
:10055000E032F10549F0660C771C881C991C569412
:10056000479437942794C3CFFA85EA892B893C892D
:100570008B859C85280F391F2E5F3F4F17C0CA01FE
:1005800081709070892B61F016950795F794E79428
:1005900080E090E0A0E0B0E8E82AF92A0A2B1B2BC3
:1005A00076956795579547952F5F3F4F77FDE7CF36
:1005B0000CC0440F551F661F771F17FD4160EE0CDE
:1005C000FF1C001F111F21503040403090E05907A0
:1005D00090E0690790E4790760F32B8F3C8FDB0193
:1005E000CA018F779070A070B07080349105A1051A
:1005F000B10561F447FD0AC0E114F10401051105DC
:1006000029F0405C5F4F6F4F7F4F40781A8EFE1786
:1006100011F081E08A8F4D8F5E8F6F8F78A383E01A
:10062000898FCE0149960E94FD03A096E2E10C94C9
:100630005322A8E1B0E0EFE1F3E00C944322698398
:100640007A838B839C832D833E834F83588789E0F5
:10065000E82EF12CEC0EFD1ECE010196B7010E9492
:10066000D2048E010F5E1F4FCE010596B8010E9485
:10067000D2048985823040F08989823028F0C70110
:10068000B8010E944A0501C08FEF6896E6E00C941D
:100690005F22A8E1B0E0EFE4F3E00C944322698329
:1006A0007A838B839C832D833E834F83588789E095
:1006B000E82EF12CEC0EFD1ECE010196B7010E9432
:1006C000D2048E010F5E1F4FCE010596B8010E9425
:1006D000D2048985823040F08989823028F0C701B0
:1006E000B8010E944A0501C08FEF6896E6E00C94BD
:1006F0005F22A8E1B0E0EFE7F3E00C9443226983C6
:100700007A838B839C832D833E834F83588789E034
:10071000E82EF12CEC0EFD1ECE010196B7010E94D1
:10072000D2048E010F5E1F4FCE010596B8010E94C4
:10073000D2048985823040F08989823028F0C7014F
:10074000B8010E944A0501C081E06896E6E00C9479
:100750005F22ACE0B0E0EFEAF3E00C94472269835B
:100760007A838B839C83CE010196BE016B5F7F4FA2
:100770000E94D2048D81823061F1823050F1843048
:1007800021F48E81882351F12EC02F81388537FDC9
:1007900020C06E812F3131051CF06623F9F023C093
:1007A0008EE190E0821B930B29853A854B855C8511
:1007B00004C056954795379527958A95D2F76623B5
:1007C000B1F050954095309521953F4F4F4F5F4F79
:1007D0000EC020E030E040E050E009C02FEF3FEFD6
:1007E0004FEF5FE704C020E030E040E050E8B9019F
:1007F000CA012C96E2E00C946322DF92EF92FF9202
:100800000F931F93FC01E480F58006811781D1804E
:100810008081823048F480E090E0A0E1B0E0E82AF6
:10082000F92A0A2B1B2BA5C0843009F49FC0823003
:1008300021F4EE24FF24870105C0E114F104010531
:10084000110519F4E0E0F0E096C0628173819FEF3A
:10085000623879070CF05BC022E83FEF261B370BAC
:100860002A3131052CF020E030E040E050E02AC091
:10087000B801A701022E04C0769567955795479554
:100880000A94D2F781E090E0A0E0B0E004C0880FC5
:10089000991FAA1FBB1F2A95D2F70197A109B10979
:1008A0008E219F21A023B1230097A105B10521F03E
:1008B00081E090E0A0E0B0E09A01AB01282B392B59
:1008C0004A2B5B2BDA01C9018F779070A070B07052
:1008D00080349105A105B10539F427FF09C0205CDA
:1008E0003F4F4F4F5F4F04C0215C3F4F4F4F5F4F13
:1008F000E0E0F0E02030A0E03A07A0E04A07A0E402
:100900005A0710F0E1E0F0E079018A0127C0603871
:10091000710564F5FB01E158FF4FD801C7018F77DE
:100920009070A070B07080349105A105B10539F4C4
:10093000E7FE0DC080E490E0A0E0B0E004C08FE3EB
:1009400090E0A0E0B0E0E80EF91E0A1F1B1F17FFA1
:1009500005C016950795F794E794319687E01695AC
:100960000795F794E7948A95D1F705C0EE24FF2404
:100970008701EFEFF0E06E2F679566276795902F60
:100980009F77D794DD24D7948E2F8695492F462BB9
:10099000582F5D29B701CA011F910F91FF90EF9069
:1009A000DF900895FC01DB01408151812281622F9B
:1009B0006F7770E0221F2227221F9381892F880FD3
:1009C000822B282F30E0991F9927991F11969C930D
:1009D000119721153105A9F54115510561057105DD
:1009E00011F482E037C082E89FEF13969C938E93B8
:1009F00012979A01AB0167E0220F331F441F551F66
:100A00006A95D1F783E08C930DC0220F331F441FEA
:100A1000551F12968D919C911397019713969C9355
:100A20008E931297203080E0380780E0480780E4FA
:100A3000580758F314962D933D934D935C93179755
:100A400008952F3F310579F4411551056105710570
:100A500019F484E08C93089564FF03C081E08C93C3
:100A600012C01C9210C02F57304013963C932E9307
:100A7000129783E08C9387E0440F551F661F771F02
:100A80008A95D1F7706414964D935D936D937C9322
:100A9000179708951F93DC01FB019C91923008F495
:100AA00047C08081823008F443C0943051F41196DD
:100AB0001C91843099F58181682F70E0611B710968
:100AC0003FC0843021F0923031F48230B9F181811D
:100AD000882389F12DC011961C9111978230F1F075
:100AE00081811817D9F412962D913C911397828128
:100AF00093818217930794F028173907BCF0149656
:100B00008D919D910D90BC91A02D248135814681C0
:100B10005781281739074A075B0718F4112341F05A
:100B20000AC082179307A407B50740F4112319F0F0
:100B300061E070E005C06FEF7FEF02C060E070E041
:100B4000CB011F910895DF93CF93CDB7DEB7A7E216
:100B5000B0E0E7E2F0E0808180648C93A7E2B0E04F
:100B6000E7E2F0E080818F778C93A7E2B0E0E7E2E4
:100B7000F0E080818F7D8C93A6E2B0E0E6E2F0E0C9
:100B80008081877F8C93A6E2B0E0E6E2F0E080818E
:100B9000887F8C93A6E2B0E0E6E2F0E08081876097
:100BA0008C93A6E2B0E0E6E2F0E0808180688C936E
:100BB000CF91DF910895DF93CF93CDB7DEB728971C
:100BC0000FB6F894DEBF0FBECDBF8E8378876F83DC
:100BD0001D828F819885009709F469C080910A0170
:100BE000813009F061C019821A821B821C82109226
:100BF0000A01A7E2B0E0E7E2F0E08081807E8C931A
:100C0000A7E2B0E0E7E2F0E090818E81892B8C933F
:100C1000A6E2B0E0E6E2F0E0808180648C930BC055
:100C200089819A81AB81BC810196A11DB11D898307
:100C30009A83AB83BC83E6E2F0E0808182958F707B
:100C4000882F90E081709070009761F489819A817B
:100C5000AB81BC81803523EC920720E0A20720E025
:100C6000B207F0F289819A81AB81BC81803523EC97
:100C7000920720E0A20720E0B20718F083E08D83FE
:100C800018C0A6E2B0E0E6E2F0E0808180618C93DB
:100C9000E4E2F0E080819181EF81F88591838083A7
:100CA00081E080930A0105C084E08D8302C082E068
:100CB0008D838D8128960FB6F894DEBF0FBECDBF11
:100CC000CF91DF910895DF93CF9300D000D000D073
:100CD000CDB7DEB78A837C836B835E834D831982B5
:100CE0008B819C810097C9F18D819E810097A9F12C
:100CF00080910A01813071F510920A011092400131
:100D00008B819C8190933901809338018D819E81E4
:100D100090933B0180933A01A7E2B0E0E7E2F0E074
:100D20008081807E8C93A7E2B0E0E7E2F0E09081E2
:100D30008A81892B8C93A6E2B0E0E6E2F0E0808124
:100D400080648C93A6E2B0E0E6E2F0E08081886007
:100D50008C9305C084E0898302C082E08983898105
:100D600026960FB6F894DEBF0FBECDBFCF91DF91B0
:100D70000895DF93CF9300D00F92CDB7DEB79B835A
:100D80008A8319828A819B81009709F45BC08091D4
:100D90000A01813009F053C010920A0181E080936A
:100DA0004001EA81FB818581968190933B0180938C
:100DB0003A01EA81FB818381948190933901809388
:100DC0003801EA81FB818181928190933D0180937A
:100DD0003C01EA81FB81808180933F01EA81FB81B4
:100DE000878190859093420180934101A7E2B0E012
:100DF000E7E2F0E08081807E8C93A7E2B0E0E7E25A
:100E0000F0E0408120913C0130913D0180913E0114
:100E1000882F90E0F901E80FF91F8081842B8C93D3
:100E2000A6E2B0E0E6E2F0E0808180648C93A6E286
:100E3000B0E0E6E2F0E0808188608C9305C084E059
:100E4000898302C082E0898389810F900F900F907F
:100E5000CF91DF9108951F920F920FB60F92112438
:100E60002F933F934F935F936F937F938F939F93B2
:100E7000AF93BF93EF93FF93DF93CF93CDB7DEB7DD
:100E80008091380190913901009709F465C08091F3
:100E90004001882309F5A0913801B0913901E4E2BD
:100EA000F0E0808191818D939C93A6E2B0E0E6E230
:100EB000F0E08081877F8C9381E080930A018091AC
:100EC0003A0190913B01009709F446C0E0913A0144
:100ED000F0913B01099540C0809140018130E1F5DE
:100EE000209138013091390180913E01882F90E0A6
:100EF000880F991FD901A80FB91FE4E2F0E08081A3
:100F000091818D939C9380913E018F5F80933E01F0
:100F1000A6E2B0E0E6E2F0E08081877F8C9381E09A
:100F200080930A0190913E0180913F01981739F01A
:100F300080914101909142010E94B9060DC08091BB
:100F40003A0190913B01009739F010923E01E091F7
:100F50003A01F0913B010995CF91DF91FF91EF911B
:100F6000BF91AF919F918F917F916F915F914F91C1
:100F70003F912F910F900FBE0F901F901895DF9308
:100F8000CF93CDB7DEB72E970FB6F894DEBF0FBE66
:100F9000CDBF80E062E041E00E94E70D80E090E09C
:100FA000A0E0B0E48B879C87AD87BE876B857C858E
:100FB0008D859E8520E030E04AE755E40E941F02BF
:100FC000DC01CB018F839887A987BA876F817885E9
:100FD00089859A8520E030E040E85FE30E9479034C
:100FE00088232CF481E090E09E838D833FC06F8145
:100FF000788589859A8520E03FEF4FE757E40E9486
:10100000190318164CF56B857C858D859E8520E02F
:1010100030E040E251E40E941F02DC01CB01BC0140
:10102000CD010E944900DC01CB019E838D830FC05E
:1010300080E991E09C838B838B819C810197F1F700
:101040009C838B838D819E8101979E838D838D816F
:101050009E81009769F714C06F81788589859A858C
:101060000E944900DC01CB019E838D838D819E818E
:101070009A83898389819A810197F1F79A83898379
:1010800080E062E040E00E94E70D2E960FB6F894F3
:10109000DEBF0FBECDBFCF91DF910895DF93CF9319
:1010A0000F92CDB7DEB789838981982F917080E048
:1010B00063E0492F0E94E70D89818695982F9170F2
:1010C00080E064E0492F0E94E70D8981869586952E
:1010D000982F917080E065E0492F0E94E70D89818B
:1010E000869586958695982F917080E066E0492FC9
:1010F0000E94E70D0F90CF91DF910895DF93CF937A
:101100000F92CDB7DEB7898380E061E040E00E94B6
:10111000E70D898182958F700E944E080E94BF075B
:1011200089810E944E080E94BF070F90CF91DF91E6
:101130000895DF93CF930F92CDB7DEB7898380E018
:1011400061E041E00E94E70D898182958F700E94E5
:101150004E080E94BF0789810E944E080E94BF0767
:101160000F90CF91DF910895DF93CF93CDB7DEB786
:101170002E970FB6F894DEBF0FBECDBF80E090E093
:10118000A0E2B2E48B879C87AD87BE876B857C85A8
:101190008D859E8520E030E04AE755E40E941F02DD
:1011A000DC01CB018F839887A987BA876F81788507
:1011B00089859A8520E030E040E85FE30E9479036A
:1011C00088232CF481E090E09E838D833FC06F8163
:1011D000788589859A8520E03FEF4FE757E40E94A4
:1011E000190318164CF56B857C858D859E8520E04E
:1011F00030E040E251E40E941F02DC01CB01BC015F
:10120000CD010E944900DC01CB019E838D830FC07C
:1012100080E991E09C838B838B819C810197F1F71E
:101220009C838B838D819E8101979E838D838D818D
:101230009E81009769F714C06F81788589859A85AA
:101240000E944900DC01CB019E838D838D819E81AC
:101250009A83898389819A810197F1F79A83898397
:1012600082E00E944E080E94BF0782E00E944E0862
:101270000E94BF0788E00E944E080E94BF078CE0D2
:101280000E947E0881E00E947E082E960FB6F89498
:10129000DEBF0FBECDBFCF91DF910895DF93CF9317
:1012A00000D000D0CDB7DEB79C838B831A828B81B0
:1012B0009C810097E1F019820EC08981282F30E0CF
:1012C0008B819C81FC01E20FF31F80810E949908B1
:1012D00089818F5F89838981282F30E08B819C8170
:1012E000FC01E20FF31F8081882339F702C082E0FE
:1012F0008A838A810F900F900F900F90CF91DF918A
:101300000895DF93CF93CDB7DEB761970FB6F8940A
:10131000DEBF0FBECDBF6E877F87888B998B1A8209
:101320008E859F85A889B9890097A105B10521F40B
:1013300080E30E94990869C08E859F85A889B98934
:10134000BB230CF043C08DE20E9499088E859F85D7
:10135000A889B989B095A095909581959F4FAF4F79
:10136000BF4F8E879F87A88BB98B30C08E859F8596
:10137000A889B9892AE030E040E050E0BC01CD0105
:101380000E941C22DC01CB018B838E859F85A8895E
:10139000B9892AE030E040E050E0BC01CD010E9474
:1013A0001C22DA01C9018E879F87A88BB98B8A819D
:1013B000282F30E08B81482F405DCE010496FC0140
:1013C000E20FF31F40838A818F5F8A838E859F851A
:1013D000A889B9890097A105B10541F68A81815094
:1013E000898310C08981282F332727FD3095CE01AE
:1013F0000496FC01E20FF31F80810E949908898105
:1014000081508983898188236CF761960FB6F8949F
:10141000DEBF0FBECDBFCF91DF910895DF93CF9395
:1014200000D00F92CDB7DEB78A836B838B81882380
:1014300019F48A81898306C08B81813019F48A81ED
:10144000805C898389818068898389810E947E0884
:101450000F900F900F90CF91DF910895DF93CF936E
:10146000CDB7DEB727970FB6F894DEBF0FBECDBF5E
:101470009C838B836D834E832F838D81882F90E097
:10148000880F991F880F991F880F991F8A838A8157
:1014900080648A838A810E947E0819820EC08981B5
:1014A000282F30E08B819C81FC01E20FF31F8081AB
:1014B0000E94990889818F5F89838981883078F3B8
:1014C0008E816F810E940E0A8D810E949908279655
:1014D0000FB6F894DEBF0FBECDBFCF91DF91089558
:1014E000DF93CF93CDB7DEB72B970FB6F894DEBF5F
:1014F0000FBECDBF8B871A8288E0898320C0898187
:10150000815089838A81482F50E08B85282F33278B
:1015100027FD30958981882F90E0B90102C075952B
:1015200067958A95E2F7CB01282F2170CE010396AB
:10153000FC01E40FF51F20838A818F5F8A838981F4
:101540008823E9F680E690E00E944E091A8214C0D2
:101550008A81282F30E0CE010396FC01E20FF31FB1
:101560008081882F90E0A0E0B0E0BC01CD010E9416
:1015700081098A818F5F8A838A81883048F32B961C
:101580000FB6F894DEBF0FBECDBFCF91DF910895A7
:10159000DF93CF93CDB7DEB762970FB6F894DEBF77
:1015A0000FBECDBF8E871D8288E08C831B821A827E
:1015B000198220C08C8181508C838D81482F50E00E
:1015C0008E85282F332727FD30958C81882F90E03A
:1015D000B90102C0759567958A95E2F7CB01282F6E
:1015E0002170CE010696FC01E40FF51F20838D814A
:1015F0008F5F8D838C818823E9F683E08C8383E67B
:1016000090E00E944E091D821FC08D81282F30E07E
:10161000CE010696FC01E20FF31F8081282F30E0F7
:101620008C81882F90E0A90102C0440F551F8A9534
:10163000E2F7CA01982F8981892B89838C81815097
:101640008C838D818F5F8D838D818430F0F28981D1
:10165000682F70E07A8B698B89899A898C30910523
:1016600031F129893A892D3031055CF449895A894B
:101670004A305105B1F069897A896B307105A1F062
:1016800022C089899A898E309105B9F029893A89D1
:101690002E3031057CF049895A894F30510581F04F
:1016A00012C081E48B8312C082E48B830FC083E479
:1016B0008B830CC084E48B8309C085E48B8306C0D4
:1016C00086E48B8303C08981805D8B8383E08C8378
:1016D000198284E08D831FC08D81282F30E0CE01D8
:1016E0000696FC01E20FF31F8081282F30E08C81E9
:1016F000882F90E0B90102C0660F771F8A95E2F744
:10170000CB01982F8981892B89838C8181508C838F
:101710008D818F5F8D838D818830F0F28981282FB4
:1017200030E0388B2F874F8558894C30510531F187
:101730006F8578896D3071055CF48F8598898A3062
:101740009105B1F02F8538892B303105A1F022C0E9
:101750004F8558894E305105B9F06F8578896E30C4
:1017600071057CF08F8598898F30910581F012C0CA
:1017700081E48A8312C082E48A830FC083E48A836F
:101780000CC084E48A8309C085E48A8306C086E4A9
:101790008A8303C08981805D8A838B810E94990836
:1017A0008A810E94990862960FB6F894DEBF0FBE38
:1017B000CDBFCF91DF910895DF93CF9300D00F92EB
:1017C000CDB7DEB79B838A8319828A819B8100977C
:1017D000E9F1EA81FB818081EA81FB819181692FB6
:1017E00040E00E94E70DEA81FB818081EA81FB8174
:1017F0009281692F40E00E94E70DEA81FB818081A0
:10180000EA81FB819381692F40E00E94E70DEA8124
:10181000FB818081EA81FB819481692F40E00E94F5
:10182000E70DEA81FB818081EA81FB819181692F4B
:1018300041E00E94E70DEA81FB818081EA81FB8122
:101840009481692F41E00E94E70D02C082E0898304
:1018500089810F900F900F90CF91DF910895DF93C2
:10186000CF9300D00F92CDB7DEB79B838A831982C6
:101870008A819B810097E9F1EA81FB818081EA817D
:10188000FB819181692F40E00E94E70DEA81FB8195
:101890008081EA81FB819281692F40E00E94E70DFF
:1018A000EA81FB818081EA81FB819381692F40E09D
:1018B0000E94E70DEA81FB818081EA81FB819481AE
:1018C000692F40E00E94E70DEA81FB818081EA8177
:1018D000FB819281692F41E00E94E70DEA81FB8143
:1018E0008081EA81FB819381692F41E00E94E70DAD
:1018F00002C082E0898389810F900F900F90CF9171
:10190000DF910895DF93CF9300D00F92CDB7DEB76C
:101910009B838A8319828A819B810097E9F1EA81FE
:10192000FB818081EA81FB819181692F40E00E94E7
:10193000E70DEA81FB818081EA81FB819281692F39
:1019400040E00E94E70DEA81FB818081EA81FB8112
:101950009381692F40E00E94E70DEA81FB8180813D
:10196000EA81FB819481692F40E00E94E70DEA81C2
:10197000FB818081EA81FB819381692F41E00E9494
:10198000E70DEA81FB818081EA81FB819481692FE7
:1019900041E00E94E70D02C082E0898389810F90B7
:1019A0000F900F90CF91DF910895DF93CF93CDB734
:1019B000DEB728970FB6F894DEBF0FBECDBF8A837F
:1019C0006B834C8319828B81883008F0F4C08C8142
:1019D000882309F077C08A81282F30E038872F8349
:1019E0008F8198858130910559F12F81388522307A
:1019F00031052CF48F819885009769F060C02F81A4
:101A000038852230310589F18F81988583309105A1
:101A100009F440C054C0AAE3B0E0EAE3F0E08081FA
:101A2000482F8B81282F30E081E090E0022E02C009
:101A3000880F991F0A94E2F7809584238C93BDC088
:101A4000A7E3B0E0E7E3F0E08081482F8B81282F07
:101A500030E081E090E0022E02C0880F991F0A94C6
:101A6000E2F7809584238C93A8C0A4E3B0E0E4E37C
:101A7000F0E08081482F8B81282F30E081E090E0DA
:101A8000022E02C0880F991F0A94E2F780958423E2
:101A90008C9393C0A1E3B0E0E1E3F0E08081482FB4
:101AA0008B81282F30E081E090E0022E02C0880F69
:101AB000991F0A94E2F7809584238C937EC081E07D
:101AC00089837BC08C81813009F072C08A81282F84
:101AD00030E03E832D838D819E818130910549F1D7
:101AE0002D813E81223031052CF48D819E8100971D
:101AF00061F05BC02D813E812230310571F18D8115
:101B00009E8183309105E9F150C0AAE3B0E0EAE399
:101B1000F0E08081482F8B81282F30E081E090E039
:101B2000022E02C0880F991F0A94E2F7842B8C932F
:101B300044C0A7E3B0E0E7E3F0E08081482F8B8169
:101B4000282F30E081E090E0022E02C0880F991F1C
:101B50000A94E2F7842B8C9330C0A4E3B0E0E4E372
:101B6000F0E08081482F8B81282F30E081E090E0E9
:101B7000022E02C0880F991F0A94E2F7842B8C93DF
:101B80001CC0A1E3B0E0E1E3F0E08081482F8B814D
:101B9000282F30E081E090E0022E02C0880F991FCC
:101BA0000A94E2F7842B8C9308C081E0898305C0F6
:101BB00081E0898302C081E08983898128960FB6FC
:101BC000F894DEBF0FBECDBFCF91DF910895DF93B4
:101BD000CF93CDB7DEB728970FB6F894DEBF0FBE10
:101BE000CDBF8A836B834C8319828B81883008F048
:101BF000F4C08C81882309F077C08A81282F30E0D7
:101C000038872F838F8198858130910559F12F81F5
:101C10003885223031052CF48F819885009769F042
:101C200060C02F8138852230310589F18F819885F8
:101C30008330910509F440C054C0ABE3B0E0EBE35E
:101C4000F0E08081482F8B81282F30E081E090E008
:101C5000022E02C0880F991F0A94E2F78095842310
:101C60008C93BDC0A8E3B0E0E8E3F0E08081482FAA
:101C70008B81282F30E081E090E0022E02C0880F97
:101C8000991F0A94E2F7809584238C93A8C0A5E35A
:101C9000B0E0E5E3F0E08081482F8B81282F30E031
:101CA00081E090E0022E02C0880F991F0A94E2F7AB
:101CB000809584238C9393C0A2E3B0E0E2E3F0E04C
:101CC0008081482F8B81282F30E081E090E0022E28
:101CD00002C0880F991F0A94E2F7809584238C93A1
:101CE0007EC081E089837BC08C81813009F072C025
:101CF0008A81282F30E03E832D838D819E81813023
:101D0000910549F12D813E81223031052CF48D81E0
:101D10009E81009761F05BC02D813E8122303105AC
:101D200071F18D819E8183309105E9F150C0ABE363
:101D3000B0E0EBE3F0E08081482F8B81282F30E08A
:101D400081E090E0022E02C0880F991F0A94E2F70A
:101D5000842B8C9344C0A8E3B0E0E8E3F0E08081FA
:101D6000482F8B81282F30E081E090E0022E02C0C6
:101D7000880F991F0A94E2F7842B8C9330C0A5E357
:101D8000B0E0E5E3F0E08081482F8B81282F30E040
:101D900081E090E0022E02C0880F991F0A94E2F7BA
:101DA000842B8C931CC0A2E3B0E0E2E3F0E08081DE
:101DB000482F8B81282F30E081E090E0022E02C076
:101DC000880F991F0A94E2F7842B8C9308C081E056
:101DD000898305C081E0898302C081E0898389818C
:101DE00028960FB6F894DEBF0FBECDBFCF91DF911E
:101DF0000895DF93CF93CDB7DEB727970FB6F8944A
:101E0000DEBF0FBECDBF8A836B835D834C83198297
:101E10008C819D81009719F482E089837AC08B813F
:101E2000883008F074C08A81282F30E03F832E83E9
:101E30004E815F814130510559F18E819F81823001
:101E4000910534F42E813F812115310569F05CC084
:101E50004E815F814230510579F18E819F818330BF
:101E6000910509F43DC050C0E9E3F0E08081282FDE
:101E700030E08B81882F90E0A90102C055954795ED
:101E80008A95E2F7CA018170EC81FD81808341C0AF
:101E9000E6E3F0E08081282F30E08B81882F90E00E
:101EA000A90102C0559547958A95E2F7CA0181704C
:101EB000EC81FD8180832DC0E3E3F0E08081282F59
:101EC00030E08B81882F90E0A90102C0559547959D
:101ED0008A95E2F7CA018170EC81FD81808319C087
:101EE000E0E3F0E08081282F30E08B81882F90E0C4
:101EF000A90102C0559547958A95E2F7CA018170FC
:101F0000EC81FD81808305C081E0898302C081E08E
:101F10008983898127960FB6F894DEBF0FBECDBFA7
:101F2000CF91DF910895DF93CF9300D000D00F922F
:101F3000CDB7DEB78A836B8319828A818430B0F58E
:101F40008A81282F30E03D832C838C819D818130D4
:101F50009105D1F02C813D81223031052CF48C810A
:101F60009D81009761F01FC02C813D812230310599
:101F700081F08C819D818330910581F014C0EAE36A
:101F8000F0E08B81808314C0E7E3F0E08B818083F5
:101F90000FC0E4E3F0E08B8180830AC0E1E3F0E06E
:101FA0008B81808305C081E0898302C081E08983C1
:101FB00089810F900F900F900F900F90CF91DF912C
:101FC0000895DF93CF9300D000D00F92CDB7DEB746
:101FD0008A836B8319828A818430B0F58A81282FA5
:101FE00030E03D832C838C819D8181309105D1F03F
:101FF0002C813D81223031052CF48C819D8100970C
:1020000061F01FC02C813D812230310581F08C812F
:102010009D818330910581F014C0EBE3F0E08B816A
:10202000808314C0E8E3F0E08B8180830FC0E5E398
:10203000F0E08B8180830AC0E2E3F0E08B81808353
:1020400005C081E0898302C081E0898389810F9086
:102050000F900F900F900F90CF91DF910895DF9325
:10206000CF9300D000D00F92CDB7DEB78A836B83B9
:1020700019828B81883008F072C08A81282F30E065
:102080003D832C838C819D818130910549F12C8188
:102090003D81223031052CF48C819D81009761F0C7
:1020A0005BC02C813D812230310571F18C819D8195
:1020B00083309105E9F150C0ABE3B0E0EBE3F0E031
:1020C0008081482F8B81282F30E081E090E0022E24
:1020D00002C0880F991F0A94E2F784278C9341C0AD
:1020E000A8E3B0E0E8E3F0E08081482F8B81282F5F
:1020F00030E081E090E0022E02C0880F991F0A9420
:10210000E2F784278C932DC0A5E3B0E0E5E3F0E08F
:102110008081482F8B81282F30E081E090E0022ED3
:1021200002C0880F991F0A94E2F784278C9319C084
:10213000A2E3B0E0E2E3F0E08081482F8B81282F1A
:1021400030E081E090E0022E02C0880F991F0A94CF
:10215000E2F784278C9305C081E0898302C081E087
:10216000898389810F900F900F900F900F90CF91DE
:10217000DF910895DF93CF93CDB7DEB7A5E5B0E04B
:10218000E5E5F0E080818E7F8C93A5E5B0E0E5E5A4
:10219000F0E0808182608C93ABE5B0E0EBE5F0E0AD
:1021A000808180648C93A5E5B0E0E5E5F0E0808176
:1021B0008B7F8C93A5E5B0E0E5E5F0E08081886059
:1021C0008C93ABE5B0E0EBE5F0E0808180688C9328
:1021D000A4E5B0E0E4E5F0E080818F7B8C93ABE593
:1021E000B0E0EBE5F0E0808180628C93CF91DF91ED
:1021F0000895DF93CF93CDB7DEB72B970FB6F89442
:10220000DEBF0FBECDBF8A836B8319828A81282FE0
:1022100030E03B872A878A859B858130910509F4C8
:102220006AC02A853B852230310509F4C3C08A85FE
:102230009B85009709F0E1C08B81282F30E039871A
:102240002887888599858230910529F128853985E7
:102250002330310534F4888599858130910561F00A
:1022600047C0288539852330310521F18885998536
:102270008430910571F13CC0A5E5B0E0E5E5F0E002
:1022800080818E7F8C93A5E5B0E0E5E5F0E080816C
:102290008D7F8C93B4C0A5E5B0E0E5E5F0E08081EA
:1022A00081608C93A5E5B0E0E5E5F0E080818D7F6D
:1022B0008C93A5C0A5E5B0E0E5E5F0E080818E7FD8
:1022C0008C93A5E5B0E0E5E5F0E0808182608C9339
:1022D00096C0A5E5B0E0E5E5F0E0808181608C93F3
:1022E000A5E5B0E0E5E5F0E0808182608C9387C0F1
:1022F00081E0898384C08B81282F30E03F832E8347
:102300008E819F818230910529F12E813F8123307A
:10231000310534F48E819F818130910561F047C091
:102320002E813F812330310521F18E819F818430C0
:10233000910571F13CC0A5E5B0E0E5E5F0E08081F4
:102340008B7F8C93A5E5B0E0E5E5F0E08081877FA9
:102350008C9355C0A5E5B0E0E5E5F0E080818460B0
:102360008C93A5E5B0E0E5E5F0E08081877F8C9374
:1023700046C0A5E5B0E0E5E5F0E080818B7F8C9379
:10238000A5E5B0E0E5E5F0E0808188608C9337C09A
:10239000A5E5B0E0E5E5F0E0808184608C93A5E5FB
:1023A000B0E0E5E5F0E0808188608C9328C081E0B2
:1023B000898325C08B81282F30E03D832C838C813D
:1023C0009D818330910531F02C813D812430310590
:1023D00049F010C0A4E5B0E0E4E5F0E080818F7B37
:1023E0008C930DC0A4E5B0E0E4E5F0E0808180646A
:1023F0008C9305C081E0898302C081E08983898153
:102400002B960FB6F894DEBF0FBECDBFCF91DF91F4
:102410000895DF93CF9300D000D0CDB7DEB78A8385
:1024200019828A81282F30E03C832B838B819C8109
:102430008130910589F02B813C8122303105A1F05A
:102440008B819C810097C1F4ABE5B0E0EBE5F0E057
:10245000808180648C9312C0ABE5B0E0EBE5F0E0E6
:10246000808180688C930AC0ABE5B0E0EBE5F0E0DA
:10247000808180628C9302C081E0898389810F9082
:102480000F900F900F90CF91DF910895DF93CF932E
:1024900000D000D0CDB7DEB78A8319828A81282F79
:1024A00030E03C832B838B819C818130910589F0C6
:1024B0002B813C8122303105A1F08B819C810097DA
:1024C000C1F4ABE5B0E0EBE5F0E080818F7B8C936D
:1024D00012C0ABE5B0E0EBE5F0E080818F778C9344
:1024E0000AC0ABE5B0E0EBE5F0E080818F7D8C9336
:1024F00002C081E0898389810F900F900F900F9027
:10250000CF91DF910895DF93CF9300D000D0CDB766
:10251000DEB78A837C836B8319828B819C810097D1
:1025200069F08A81882F90E0880F991FFC01ED5B8C
:10253000FE4F8B819C819183808302C082E08983DE
:1025400089810F900F900F900F90CF91DF91089598
:102550001F920F920FB60F9211242F933F934F9318
:102560005F936F937F938F939F93AF93BF93EF93FB
:10257000FF93DF93CF93CDB7DEB780914301909166
:102580004401009729F0E0914301F091440109953D
:10259000CF91DF91FF91EF91BF91AF919F918F917B
:1025A0007F916F915F914F913F912F910F900FBE4F
:1025B0000F901F9018951F920F920FB60F92112433
:1025C0002F933F934F935F936F937F938F939F933B
:1025D000AF93BF93EF93FF93DF93CF93CDB7DEB766
:1025E0008091450190914601009729F0E0914501C5
:1025F000F09146010995CF91DF91FF91EF91BF9145
:10260000AF919F918F917F916F915F914F913F918A
:102610002F910F900FBE0F901F9018951F920F9241
:102620000FB60F9211242F933F934F935F936F93A5
:102630007F938F939F93AF93BF93EF93FF93DF931A
:10264000CF93CDB7DEB780914701909148010097B5
:1026500029F0E0914701F09148010995CF91DF9170
:10266000FF91EF91BF91AF919F918F917F916F916A
:102670005F914F913F912F910F900FBE0F901F9040
:102680001895DF93CF93CDB7DEB77894CF91DF91D4
:102690000895DF93CF93CDB7DEB7F894CF91DF9154
:1026A0000895DF93CF9300D000D00F92CDB7DEB75F
:1026B0008FEF8B8319825EC08981882F90E0FC01A7
:1026C000E15EFE4F908183E0692F40E00E94E70DBC
:1026D0001A823DC08A81882F90E0FC01E55EFE4FA2
:1026E00090819E012C5F3F4F81E0692FA9010E94DC
:1026F000F90E8C81882341F58A81482F50E0898129
:10270000282F30E0CA01880F991F880F991F820F68
:10271000931FFC01E55FFE4F80818B830FC08A8190
:10272000882F90E0FC01E55EFE4F90819E012C5FBA
:102730003F4F81E0692FA9010E94F90E8C81882307
:1027400071F38B818D831CC08A818F5F8A838A811C
:10275000843008F4BFCF8981882F90E0FC01E15ECE
:10276000FE4F908183E0692F41E00E94E70D89814F
:102770008F5F89838981843008F49ECF8B818D831C
:102780008D810F900F900F900F900F90CF91DF9150
:102790000895DF93CF93CDB7DEB7EAE3F0E08EE79D
:1027A0008083E7E3F0E08BE08083E4E3F0E08FEF09
:1027B0008083E1E3F0E08CE38083EBE3F0E01082E0
:1027C000E8E3F0E084EF8083E5E3F0E01082E2E309
:1027D000F0E08CE38083CF91DF910895DF93CF9376
:1027E000CDB7DEB7C154D0400FB6F894DEBF0FBEF0
:1027F000CDBF9FAF8EAFFE01E05CFF4F7183608362
:102800001DAE1CAE1BAE1AAE19AE8EAD9FAD0097BD
:1028100009F49BC2FE01E05CFF4F80819181CC01F5
:10282000A0E0B0E0072E7BE0880F991FAA1FBB1F16
:102830007A95D1F7702D28E631E040E050E0BC01F8
:10284000CD010E94FA21DA01C9019CAF8BAF1AAE0B
:1028500019AE6DC2EEADFFAD8081EEADFFAD9281E0
:10286000692F41E00E94E70DEEADFFAD8081EEAD36
:10287000FFAD9381692F41E00E94E70DEEADFFAD02
:102880008081EEADFFAD9481692F41E00E94E70D9C
:10289000EEADFFAD8081EEADFFAD9181692F40E0DF
:1028A0000E94E70D80E090E0A0E0B0E48DAB9EAB2D
:1028B000AFABB8AF6DA97EA98FA998AD20E030E08D
:1028C0004AE755E40E941F02DC01CB0189AB9AABB9
:1028D000ABABBCAB69A97AA98BA99CA920E030E07D
:1028E00040E85FE30E94790388232CF481E090E0C4
:1028F00098AB8FA73FC069A97AA98BA99CA920E0B2
:102900003FEF4FE757E40E94190318164CF56DA9E5
:102910007EA98FA998AD20E030E040E251E40E940A
:102920001F02DC01CB01BC01CD010E944900DC018A
:10293000CB0198AB8FA70FC080E991E09EA78DA730
:102940008DA59EA50197F1F79EA78DA78FA598A9A4
:10295000019798AB8FA78FA598A9009769F714C026
:1029600069A97AA98BA99CA90E944900DC01CB0125
:1029700098AB8FA78FA598A99CA78BA78BA59CA583
:102980000197F1F79CA78BA7EEADFFAD8081EEAD6F
:10299000FFAD9181692F41E00E94E70DEEADFFADE3
:1029A0008081EEADFFAD9381692F41E00E94E70D7C
:1029B000EEADFFAD8081EEADFFAD9481692F41E0BA
:1029C0000E94E70DEEADFFAD8081EEADFFAD9281CF
:1029D000692F40E00E94E70D80E090E0A0E0B0E4C5
:1029E0008FA398A7A9A7BAA76FA178A589A59AA52B
:1029F00020E030E04AE755E40E941F02DC01CB01F1
:102A00008BA39CA3ADA3BEA36BA17CA18DA19EA112
:102A100020E030E040E85FE30E94790388232CF453
:102A200081E090E09AA389A33FC06BA17CA18DA116
:102A30009EA120E03FEF4FE757E40E9419031816CC
:102A40004CF56FA178A589A59AA520E030E040E279
:102A500051E40E941F02DC01CB01BC01CD010E94A8
:102A60004900DC01CB019AA389A30FC080E991E062
:102A700098A38F8F8F8D98A10197F1F798A38F8FCF
:102A800089A19AA101979AA389A389A19AA10097E4
:102A900069F714C06BA17CA18DA19EA10E94490081
:102AA000DC01CB019AA389A389A19AA19E8F8D8F66
:102AB0008D8D9E8D0197F1F79E8F8D8FEEADFFADC1
:102AC0008081EEADFFAD9181692F41E00E94E70D5D
:102AD000EEADFFAD8081EEADFFAD9281692F41E09B
:102AE0000E94E70DEEADFFAD8081EEADFFAD9481AC
:102AF000692F41E00E94E70DEEADFFAD8081EEADA4
:102B0000FFAD9381692F40E00E94E70D80E090E0E7
:102B1000A0E0B0E4898F9A8FAB8FBC8F698D7A8DDE
:102B20008B8D9C8D20E030E04AE755E40E941F0227
:102B3000DC01CB018D8B9E8BAF8BB88F6D897E892D
:102B40008F89988D20E030E040E85FE30E947903B0
:102B500088232CF481E090E09C8B8B8B3FC06D89A7
:102B60007E898F89988D20E03FEF4FE757E40E94E0
:102B7000190318164CF5698D7A8D8B8D9C8D20E08C
:102B800030E040E251E40E941F02DC01CB01BC01B5
:102B9000CD010E944900DC01CB019C8B8B8B0FC0C7
:102BA00080E991E09A8B898B89899A890197F1F75D
:102BB0009A8B898B8B899C8901979C8B8B8B8B89BA
:102BC0009C89009769F714C06D897E898F89988DDB
:102BD0000E944900DC01CB019C8B8B8B8B899C89EB
:102BE000988B8F878F8598890197F1F7988B8F87BE
:102BF000EEADFFAD8081EEADFFAD9181692F41E07B
:102C00000E94E70DEEADFFAD8081EEADFFAD92818C
:102C1000692F41E00E94E70DEEADFFAD8081EEAD82
:102C2000FFAD9381692F41E00E94E70DEEADFFAD4E
:102C30008081EEADFFAD9481692F40E00E94E70DE9
:102C400080E090E0A0E0B0E48B879C87AD87BE87F2
:102C50006B857C858D859E8520E030E04AE755E4D4
:102C60000E941F02DC01CB018F839887A987BA8756
:102C70006F81788589859A8520E030E040E85FE3C0
:102C80000E94790388232CF481E090E09E838D8359
:102C90003FC06F81788589859A8520E03FEF4FE7B7
:102CA00057E40E94190318164CF56B857C858D85B9
:102CB0009E8520E030E040E251E40E941F02DC01EA
:102CC000CB01BC01CD010E944900DC01CB019E83F8
:102CD0008D830FC080E991E09C838B838B819C81E5
:102CE0000197F1F79C838B838D819E8101979E8351
:102CF0008D838D819E81009769F714C06F817885DF
:102D000089859A850E944900DC01CB019E838D83D1
:102D10008D819E819A83898389819A810197F1F7B8
:102D20009A83898389AD9AAD01969AAF89AF8BADAD
:102D30009CAD9C01369527953695279589AD9AAD22
:102D40008217930708F486CD02C082E08DAF8DAD67
:102D5000CF5BDF4F0FB6F894DEBF0FBECDBFCF9174
:102D6000DF910895DF93CF93CDB7DEB7C154D04044
:102D70000FB6F894DEBF0FBECDBF9FAF8EAFFE0182
:102D8000E05CFF4F718360831DAE1CAE1BAE1AAEBC
:102D900019AE8EAD9FAD009709F49AC2FE01E05CBA
:102DA000FF4F80819181CC01A0E0B0E0072E7BE055
:102DB000880F991FAA1FBB1F7A95D1F7702D28E69F
:102DC00031E040E050E0BC01CD010E94FA21DA017F
:102DD000C9019CAF8BAF1AAE19AE6DC2EEADFFAD9F
:102DE0008081EEADFFAD9281692F41E00E94E70D39
:102DF000EEADFFAD8081EEADFFAD9381692F41E077
:102E00000E94E70DEEADFFAD8081EEADFFAD948188
:102E1000692F41E00E94E70DEEADFFAD8081EEAD80
:102E2000FFAD9181692F40E00E94E70D80E090E0C6
:102E3000A0E0B0E48DAB9EABAFABB8AF6DA97EA9FF
:102E40008FA998AD20E030E04AE755E40E941F02C8
:102E5000DC01CB0189AB9AABABABBCAB69A97AA95E
:102E60008BA99CA920E030E040E85FE30E94790351
:102E700088232CF481E090E098AB8FA73FC069A92C
:102E80007AA98BA99CA920E03FEF4FE757E40E9465
:102E9000190318164CF56DA97EA98FA998AD20E0ED
:102EA00030E040E251E40E941F02DC01CB01BC0192
:102EB000CD010E944900DC01CB0198AB8FA70FC068
:102EC00080E991E09EA78DA78DA59EA50197F1F7BA
:102ED0009EA78DA78FA598A9019798AB8FA78FA5BF
:102EE00098A9009769F714C069A97AA98BA99CA928
:102EF0000E944900DC01CB0198AB8FA78FA598A950
:102F00009CA78BA78BA59CA50197F1F79CA78BA7E6
:102F1000EEADFFAD8081EEADFFAD9181692F41E057
:102F20000E94E70DEEADFFAD8081EEADFFAD938168
:102F3000692F41E00E94E70DEEADFFAD8081EEAD5F
:102F4000FFAD9281692F41E00E94E70DEEADFFAD2C
:102F50008081EEADFFAD9481692F40E00E94E70DC6
:102F600080E090E0A0E0B0E48FA398A7A9A7BAA75B
:102F70006FA178A589A59AA520E030E04AE755E43D
:102F80000E941F02DC01CB018BA39CA3ADA3BEA3B7
:102F90006BA17CA18DA19EA120E030E040E85FE321
:102FA0000E94790388232CF481E090E09AA389A3FE
:102FB0003FC06BA17CA18DA19EA120E03FEF4FE718
:102FC00057E40E94190318164CF56FA178A589A53E
:102FD0009AA520E030E040E251E40E941F02DC01AB
:102FE000CB01BC01CD010E944900DC01CB019AA3B9
:102FF00089A30FC080E991E098A38F8F8F8D98A14E
:103000000197F1F798A38F8F89A19AA101979AA3AD
:1030100089A389A19AA1009769F714C06BA17CA12B
:103020008DA19EA10E944900DC01CB019AA389A336
:1030300089A19AA19E8F8D8F8D8D9E8D0197F1F71D
:103040009E8F8D8FEEADFFAD8081EEADFFAD918196
:10305000692F41E00E94E70DEEADFFAD8081EEAD3E
:10306000FFAD9281692F41E00E94E70DEEADFFAD0B
:103070008081EEADFFAD9481692F41E00E94E70DA4
:10308000EEADFFAD8081EEADFFAD9381692F40E0E5
:103090000E94E70D80E090E0A0E0B0E4898F9A8F75
:1030A000AB8FBC8F698D7A8D8B8D9C8D20E030E04D
:1030B0004AE755E40E941F02DC01CB018D8B9E8BF9
:1030C000AF8BB88F6D897E898F89988D20E030E035
:1030D00040E85FE30E94790388232CF481E090E0CC
:1030E0009C8B8B8B3FC06D897E898F89988D20E06A
:1030F0003FEF4FE757E40E94190318164CF5698D0E
:103100007A8D8B8D9C8D20E030E040E251E40E946E
:103110001F02DC01CB01BC01CD010E944900DC0192
:10312000CB019C8B8B8B0FC080E991E09A8B898BB4
:1031300089899A890197F1F79A8B898B8B899C8968
:1031400001979C8B8B8B8B899C89009769F714C0A6
:103150006D897E898F89988D0E944900DC01CB01A1
:103160009C8B8B8B8B899C89988B8F878F8598897B
:103170000197F1F7988B8F87EEADFFAD8081EEADB3
:10318000FFAD9181692F41E00E94E70DEEADFFADEB
:103190008081EEADFFAD9481692F41E00E94E70D83
:1031A000EEADFFAD8081EEADFFAD9381692F41E0C3
:1031B0000E94E70DEEADFFAD8081EEADFFAD9281D7
:1031C000692F40E00E94E70D80E090E0A0E0B0E4CD
:1031D0008B879C87AD87BE876B857C858D859E851B
:1031E00020E030E04AE755E40E941F02DC01CB01F9
:1031F0008F839887A987BA876F81788589859A8513
:1032000020E030E040E85FE30E94790388232CF45B
:1032100081E090E09E838D833FC06F8178858985B2
:103220009A8520E03FEF4FE757E40E9419031816F4
:103230004CF56B857C858D859E8520E030E040E2F5
:1032400051E40E941F02DC01CB01BC01CD010E94B0
:103250004900DC01CB019E838D830FC080E991E0A2
:103260009C838B838B819C810197F1F79C838B835B
:103270008D819E8101979E838D838D819E81009794
:1032800069F714C06F81788589859A850E94490005
:10329000DC01CB019E838D838D819E819A838983FE
:1032A00089819A810197F1F79A83898389AD9AADD3
:1032B00001969AAF89AF8BAD9CAD9C013695279551
:1032C0003695279589AD9AAD8217930708F486CD78
:1032D0008DADCF5BDF4F0FB6F894DEBF0FBECDBF15
:1032E000CF91DF910895DF93CF93CDB7DEB7A3E5FC
:1032F000B0E0E3E5F0E0808188608C93A3E5B0E086
:10330000E3E5F0E0808180648C93A3E5B0E0E3E541
:10331000F0E08081887F8C93A3E5B0E0E3E5F0E006
:10332000808183608C93A3E5B0E0E3E5F0E08081E9
:103330008F7E8C93A3E5B0E0E3E5F0E080818062CE
:103340008C93CF91DF910895DF93CF93CDB7DEB704
:10335000AFE4B0E0EFE4F0E080818F7B8C93AFE4EA
:10336000B0E0EFE4F0E0808180688C93AEE4B0E000
:10337000EEE4F0E08081887F8C93AEE4B0E0EEE490
:10338000F0E0808182608C93AFE4B0E0EFE4F0E0A5
:1033900080818E7F8C93AFE4B0E0EFE4F0E0808139
:1033A00082608C93AEE4B0E0EEE4F0E0808188606F
:1033B0008C93AEE4B0E0EEE4F0E0808180618C9329
:1033C000CF91DF910895DF93CF9300D000D0CDB798
:1033D000DEB78A837C836B8319828B819C81009703
:1033E00069F08A81882F90E0880F991FFC01E75BC4
:1033F000FE4F8B819C819183808302C081E0898311
:1034000089810F900F900F900F90CF91DF910895C9
:10341000DF93CF930F92CDB7DEB78983ECE5F0E071
:10342000898180830F90CF91DF910895DF93CF93AF
:1034300000D000D0CDB7DEB79A8389837C836B83BD
:10344000E6E4F0E089819A8191838083EAE4F0E008
:103450008B819C81918380830F900F900F900F90B0
:10346000CF91DF9108951F920F920FB60F92112402
:103470002F933F934F935F936F937F938F939F937C
:10348000AF93BF93EF93FF93DF93CF93CDB7DEB7A7
:1034900080914B0190914C01009729F0E0914B01F4
:1034A000F0914C010995CF91DF91FF91EF91BF9180
:1034B000AF919F918F917F916F915F914F913F91CC
:1034C0002F910F900FBE0F901F901895DF93CF9301
:1034D000CDB7DEB7C355D0400FB6F894DEBF0FBEF0
:1034E000CDBF0E94C9130E94BA100E94B4080E9466
:1034F000A3059E01295D3F4F2C963FAF2EAF2C9721
:1035000080E391E02E969FAF8EAF2E9798E02F9696
:103510009FAF2F972E96EEADFFAD2E9700802E9683
:103520002EAD3FAD2E972F5F3F4F2E963FAF2EAF64
:103530002E972C96EEADFFAD2C9700822C962EADDB
:103540003FAD2C972F5F3F4F2C963FAF2EAF2C9760
:103550002F963FAD2F9731502F963FAF2F972F9635
:103560008FAD2F978823B1F6FE01BF966196FFAF0E
:10357000EEAF619728E231E063963FAF2EAF6397DD
:1035800038E064963FAF64976396EEADFFAD639706
:10359000008063962EAD3FAD63972F5F3F4F6396DC
:1035A0003FAF2EAF63976196EEADFFAD619700829E
:1035B00061962EAD3FAD61972F5F3F4F61963FAF54
:1035C0002EAF619764963FAD6497315064963FAFDC
:1035D000649764968FAD64978823B1F61EA21DA2EE
:1035E0001CA21BA21AA219A218A21F8E1E8E1D8E2B
:1035F00081E08FAF83E0FE01E05CFF4F8083FE013E
:10360000EF5BFF4F81E08083FE01EE5BFF4F81E0C7
:103610008083FE01ED5BFF4F83E08083CE01CF9678
:1036200090935A018093590183E060E00E940E0A52
:1036300086E690E00E944E0980E090E0AAEFB3E4B5
:10364000898F9A8FAB8FBC8F698D7A8D8B8D9C8D76
:1036500020E030E04AE755E40E941F02DC01CB0184
:103660008D8B9E8BAF8BB88F6D897E898F89988D5E
:1036700020E030E040E85FE30E94790388232CF4E7
:1036800081E090E09C8B8B8B3FC06D897E898F8918
:10369000988D20E03FEF4FE757E40E94190318167A
:1036A0004CF5698D7A8D8B8D9C8D20E030E040E269
:1036B00051E40E941F02DC01CB01BC01CD010E943C
:1036C0004900DC01CB019C8B8B8B0FC080E991E022
:1036D0009A8B898B89899A890197F1F79A8B898BC3
:1036E0008B899C8901979C8B8B8B8B899C890097FC
:1036F00069F714C06D897E898F89988D0E94490071
:10370000DC01CB019C8B8B8B8B899C89988B8F8761
:103710008F8598890197F1F7988B8F871EA286C0B5
:1037200081E00E947E08CE01879660E04EA120E0F5
:103730000E942E0ACE018F9661E04EA121E00E94E8
:103740002E0A80E090E0A8ECB2E48B879C87AD87DE
:10375000BE876B857C858D859E8520E030E04AE7BD
:1037600055E40E941F02DC01CB018F839887A98753
:10377000BA876F81788589859A8520E030E040E8B6
:103780005FE30E94790388232CF481E090E09E831C
:103790008D833FC06F81788589859A8520E03FEFD2
:1037A0004FE757E40E94190318164CF56B857C858A
:1037B0008D859E8520E030E040E251E40E941F02AA
:1037C000DC01CB01BC01CD010E944900DC01CB0131
:1037D0009E838D830FC080E991E09C838B838B81D6
:1037E0009C810197F1F79C838B838D819E8101974A
:1037F0009E838D838D819E81009769F714C06F81B0
:10380000788589859A850E944900DC01CB019E83D9
:103810008D838D819E819A83898389819A81019785
:10382000F1F79A8389838EA18F5F8EA38EA1803159
:1038300008F476CF81E00E947E088FE690E00E9437
:103840004E091EA24DC08EA161E00E940E0A8EA1FB
:10385000E82FF0E02A96FFAFEEAF2A972A962EAD1A
:103860003FAD2A972130310521F12A968EAD9FADCB
:103870002A97823091053CF42A96EEADFFAD2A9747
:10388000309781F02AC02A962EAD3FAD2A9722307C
:103890003105B1F02A968EAD9FAD2A978330910500
:1038A000B1F01BC0CE01C79664E04EA10E94CB1FB1
:1038B00014C0CE01C79664E04EA10E94CB1F0DC07C
:1038C000CE01C79664E04EA10E94CB1F06C0CE0178
:1038D000C79664E04EA10E94CB1F8EA18F5F8EA37E
:1038E0008EA1843008F4AFCF81E00E947E0888E783
:1038F00090E00E944E091EA24DC08EA161E00E9480
:103900000E0A8EA1E82FF0E02896FFAFEEAF2897C1
:1039100028962EAD3FAD28972130310521F128960C
:103920008EAD9FAD2897823091053CF42896EEAD80
:10393000FFAD2897309781F02AC028962EAD3FAD75
:10394000289722303105B1F028968EAD9FAD28978B
:1039500083309105B1F01BC0CE01CB9664E04EA13F
:103960000E94702014C0CE01CB9664E04EA10E944C
:1039700070200DC0CE01CB9664E04EA10E94702055
:1039800006C0CE01CB9664E04EA10E9470208EA1AD
:103990008F5F8EA38EA1843008F4AFCF9FA98EAD28
:1039A000981751F598AD8DAD981731F599AD8CAD4F
:1039B000981711F59AAD8BAD9817F1F481E00E943C
:1039C0007E0887E890E00E944E0988E060E00E944F
:1039D0000E0A80E990E00E944E0980E061E00E94BA
:1039E0000E0A88E990E00E944E09CE01CF960E940F
:1039F0009B1D0E94B021F9CF1DA270C09FA98EAD62
:103A0000981769F498AD8DAD981749F499AD8CADC0
:103A1000981729F49AAD8BAD981709F463C01AA2D0
:103A200019A281E00E947E0888E790E00E944E097A
:103A30001EA24DC08EA161E00E940E0A8EA1E82F49
:103A4000F0E02696FFAFEEAF269726962EAD3FAD5F
:103A500026972130310521F126968EAD9FAD269710
:103A6000823091053CF42696EEADFFAD2697309757
:103A700081F02AC026962EAD3FAD26972230310523
:103A8000B1F026968EAD9FAD269783309105B1F0AB
:103A90001BC0CE01CB9664E04EA10E94702014C0E2
:103AA000CE01CB9664E04EA10E9470200DC0CE01E5
:103AB000CB9664E04EA10E94702006C0CE01CB964A
:103AC00064E04EA10E9470208EA18F5F8EA38EA114
:103AD000843008F4AFCF8DA18F5F8DA38DA182308C
:103AE00008F48CCF8DA18230F1F081E00E947E0835
:103AF00087E890E00E944E0988E060E00E940E0A8C
:103B000080E990E00E944E0980E061E00E940E0A88
:103B100088E990E00E944E09CE01CF960E949B1D3D
:103B20000E94B021F9CF81E00E947E0884EA90E0F3
:103B30000E944E09FFCFAF92BF92CF92DF92EF92D9
:103B4000FF920F931F93DF93CF93CDB7DEB76897A4
:103B50000FB6F894DEBF0FBECDBF988F8F8B1C8A37
:103B60001B8A1E8A1D8A1A8A198A188A1F860E9431
:103B7000511380935C0180915C01813009F051C048
:103B800080915B01882309F04CC08FEF80935C012A
:103B900081E00E947E088AEB90E00E944E0980E05E
:103BA00061E00E940E0A87EC90E00E944E0981E0DD
:103BB00080935B0132C00E94511380935C0180911D
:103BC0005C01813079F481E00E947E0884ED90E010
:103BD0000E944E098F89988D0E94DC0B8FEF809395
:103BE0005C011BC080915C018230B9F48FEF80933F
:103BF0005C0181E00E947E080E94731981EE90E0D2
:103C00000E944E0906C00E9460210E9451138093B9
:103C10005C0180915C018F3FB1F380915C018F3F2B
:103C200051F280915C01823009F06BC080915B01A0
:103C3000882309F066C081E00E947E088EEE90E045
:103C40000E944E098FEF80935C0181E080935B01BD
:103C500034C00E94511380935C0180915C018F3FBE
:103C6000C1F380915C018A3019F410925C0104C0A8
:103C700080915C018B3029F180915C01882F90E06C
:103C8000A0E0B0E0BC01CD010E9481098B899C8934
:103C90009C01220F331FC901880F991F880F991F9C
:103CA000280F391F80915C01882F90E0820F931FAD
:103CB0009C8B8B8B8FEF80935C0180915C018B30B0
:103CC00061F68FEF80935C0180E061E00E940E0A54
:103CD0008B899C89CC01A0E0B0E0BC01CD010E94A1
:103CE000810983E291E02B893C89B9010E94EE139E
:103CF00004C00E94511380935C0180915C018F3F4E
:103D0000C1F380915C01833009F011C180915B01A6
:103D1000882309F00CC18FEF80935C0181E00E9441
:103D20007E088BEF90E00E944E090E94A41981E06A
:103D300080935B01F7C09E012B5E3F4F80E0B9018D
:103D40000E94DB058D899E89CC01A0E0B0E000D007
:103D500000D0EDB7FEB7319680839183A283B38301
:103D600060E070E080E090E02FEF33E040E050E072
:103D70000F2EF8EEEF2EF3E0FF2EF0E00F2FF0E025
:103D80001F2FF02D0F2EF8E8AF2EF3E1BF2EF0E03D
:103D9000CF2EF0E0DF2EF02D0E94ED200F900F903F
:103DA0000F900F90DC01CB019A8B898B89899A89BE
:103DB000CC01A0E0B0E02DE230E040E050E0BC01FA
:103DC000CD010E94DB21DC01CB0128EE33E040E095
:103DD00050E0BC01CD010E941C22DA01C9018D977F
:103DE0009C8B8B8B87E060E00E940E0A8B899C89FC
:103DF000CC01A0E0B0E0BC01CD010E94810988EEB9
:103E000093E0988B8F8786C02F85388980E49CE962
:103E1000B9010E94161A80E090E0A0E8BFE38B870A
:103E20009C87AD87BE876B857C858D859E8520E0D0
:103E300030E04AE755E40E941F02DC01CB018F838A
:103E40009887A987BA876F81788589859A8520E0C8
:103E500030E040E85FE30E94790388232CF481E09E
:103E600090E09E838D833FC06F81788589859A8598
:103E700020E03FEF4FE757E40E94190318164CF576
:103E80006B857C858D859E8520E030E040E251E4A5
:103E90000E941F02DC01CB01BC01CD010E94490040
:103EA000DC01CB019E838D830FC080E991E09C8370
:103EB0008B838B819C810197F1F79C838B838D8110
:103EC0009E8101979E838D838D819E81009769F7E6
:103ED00014C06F81788589859A850E944900DC012C
:103EE000CB019E838D838D819E819A838983898175
:103EF0009A810197F1F79A8389830E9451138093E5
:103F00005C0180915C01853069F08F85988901960C
:103F1000988B8F872F85388989899A89821793078B
:103F200008F072CF80915C018F3F09F404CF80913B
:103F30005C018530F9F480915B018130D9F41092F5
:103F40005B0181E00E947E0887E890E00E944E09B4
:103F500088E060E00E940E0A80E990E00E944E092D
:103F600080E061E00E940E0A88E990E00E944E091C
:103F70000E94C91368960FB6F894DEBF0FBECDBF7E
:103F8000CF91DF911F910F91FF90EF90DF90CF9035
:103F9000BF90AF900895DF93CF9300D000D0CDB7FE
:103FA000DEB79A8389836B834C8310925D018CC04A
:103FB0000E94511380935E0180915E018130F1F483
:103FC0008C81282F30E089819A81FC01E20FF31F58
:103FD00081E080838C81282F30E089819A81FC01E7
:103FE000E20FF31F8081882F90E0A0E0B0E0BC01D9
:103FF000CD010E94810981E080935D0180915E0185
:104000008230F1F48C81282F30E089819A81FC0183
:10401000E20FF31F82E080838C81282F30E08981BA
:104020009A81FC01E20FF31F8081882F90E0A0E0CD
:10403000B0E0BC01CD010E94810981E080935D0167
:1040400080915E018330F1F48C81282F30E08981EA
:104050009A81FC01E20FF31F83E080838C81282F7B
:1040600030E089819A81FC01E20FF31F8081882F63
:1040700090E0A0E0B0E0BC01CD010E94810981E0A8
:1040800080935D0180915E018430F1F48C81282F52
:1040900030E089819A81FC01E20FF31F84E0808384
:1040A0008C81282F30E089819A81FC01E20FF31F77
:1040B0008081882F90E0A0E0B0E0BC01CD010E949B
:1040C000810981E080935D0180915D01813009F07B
:1040D0006FCF0F900F900F900F90CF91DF910895B9
:1040E000DF93CF9300D000D0CDB7DEB79A8389831A
:1040F0006B834C8310925F0164C00E9451138093C4
:104100006001809160018130A1F48C81282F30E022
:1041100089819A81FC01E20FF31F81E080838C8109
:1041200061E00E940E0A8AE20E94990881E0809371
:104130005F01809160018230A1F48C81282F30E0F2
:1041400089819A81FC01E20FF31F82E080838C81D8
:1041500061E00E940E0A8AE20E94990881E0809341
:104160005F01809160018330A1F48C81282F30E0C1
:1041700089819A81FC01E20FF31F83E080838C81A7
:1041800061E00E940E0A8AE20E94990881E0809311
:104190005F01809160018430A1F48C81282F30E090
:1041A00089819A81FC01E20FF31F84E080838C8176
:1041B00061E00E940E0A8AE20E94990881E08093E1
:1041C0005F0180915F01813009F097CF0F900F90D0
:1041D0000F900F90CF91DF910895AF92BF92CF9241
:1041E000DF92EF92FF920F931F93DF93CF93CDB7A0
:1041F000DEB764970FB6F894DEBF0FBECDBF6D83F8
:104200007E838F83988729873A874B875C87ED86E3
:10421000FE860F87188BA98ABA8ACB8ADC8A198214
:104220001A821B821C8229893A894B895C898D8577
:104230009E85AF85B88979018A01E81AF90A0A0BC7
:104240001B0B29A13AA14BA15CA189859A85AB855D
:10425000BC85281B390B4A0B5B0BC801B7010E94B8
:10426000DB217B018C012D813E814F815885898521
:104270009A85AB85BC85281B390B4A0B5B0BC801A3
:10428000B7010E941C22DA01C90189839A83AB839A
:10429000BC8389819A81AB81BC81BC01CD016496CC
:1042A0000FB6F894DEBF0FBECDBFCF91DF911F9147
:1042B0000F91FF90EF90DF90CF90BF90AF90089557
:1042C000AF92BF92CF92DF92EF92FF920F931F9324
:1042D000DF93CF93CDB7DEB721E631E080E0B901BF
:1042E0000E94DB058091610190916201CC01A0E008
:1042F000B0E000D000D0EDB7FEB731968083918357
:10430000A283B38360E070E080E090E02FEF33E0C1
:1043100040E050E0EE24FF2487010F2EFFEFAF2E88
:10432000F0E0BF2EF0E0CF2EF0E0DF2EF02D0E9467
:10433000ED200F900F900F900F90DC01CB01809338
:104340006301809163010E94081ACF91DF911F9150
:104350000F91FF90EF90DF90CF90BF90AF900895B6
:10436000DF93CF93CDB7DEB7A3E5B0E0E3E5F0E0B0
:1043700080818F7E8C93A3E5B0E0E3E5F0E080815F
:104380008F7D8C93AFE4B0E0EFE4F0E080818F7735
:104390008C93AFE4B0E0EFE4F0E080818F7B8C930E
:1043A0000E94C9138091590190915A010E949B1D4E
:1043B000CF91DF910895629FD001739FF001829F9A
:1043C000E00DF11D649FE00DF11D929FF00D839FA4
:1043D000F00D749FF00D659FF00D9927729FB00D41
:1043E000E11DF91F639FB00DE11DF91FBD01CF0154
:1043F00011240895A1E21A2EAA1BBB1BFD010DC0BA
:10440000AA1FBB1FEE1FFF1FA217B307E407F50784
:1044100020F0A21BB30BE40BF50B661F771F881F60
:10442000991F1A9469F760957095809590959B01F6
:10443000AC01BD01CF01089597FB092E05260ED0D2
:1044400057FD04D0D7DF0AD0001C38F450954095B2
:10445000309521953F4F4F4F5F4F0895F6F7909558
:104460008095709561957F4F8F4F9F4F08952F9244
:104470003F924F925F926F927F928F929F92AF92F4
:10448000BF92CF92DF92EF92FF920F931F93CF9341
:10449000DF93CDB7DEB7CA1BDB0B0FB6F894DEBFD8
:1044A0000FBECDBF09942A88398848885F846E84FE
:1044B0007D848C849B84AA84B984C884DF80EE8048
:1044C000FD800C811B81AA81B981CE0FD11D0FB651
:1044D000F894DEBF0FBECDBFED010895F894FFCF75
:1044E00030620030780057454C45434F4D450045FC
:1044F0006E74657220494400456E74657220506187
:104500007373776F72640044434D205357312D000D
:1045100053544D2053573200534552564F204D208F
:10452000535733004661696C20526573657420747B
:1045300068652073797374656D00436F6E747320C2
:1045400053702D53573100436F6E74722053702D8A
:1045500053573200436F6E74732053702D52756E33
:1045600000436F6E74722053702D52756E00456E4D
:1045700074657220416E67656C3A00416E67656CC8
:104580003A000000000000000000010102030405E1
:10459000060708090A0B0C0D0E0F1004050607028A
:1045A000030405020001020304041F0404041B00A9
:0845B0000E1F111B111B0E0070
:00000001FF
